:020000040800F2
:1000000000300020754C0008BD4C0008BD4C0008B5
:10001000BD4C0008BD4C0008BD4C000800000000AD
:10002000000000000000000000000000BD4C0008BF
:10003000BD4C000800000000BD4C0008BD4C00088D
:1000400000000000000000000000000000000000B0
:1000500000000000000000000000000000000000A0
:100060000000000000000000000000000000000090
:100070000000000000000000000000000000000080
:100080000000000000000000000000000000000070
:100090000000000000000000000000000000000060
:1000A0000000000000000000000000000000000050
:1000B0000000000000000000000000000000000040
:1000C0000000000000000000000000000000000030
:1000D0000000000000000000000000000000000020
:1000E0000000000000000000000000000000000010
:1000F0000000000000000000000000000000000000
:1001000000000000000000000000000000000000EF
:1001100000000000000000000000000000000000DF
:1001200000000000000000000000000000000000CF
:1001300000000000000000000000000000000000BF
:1001400000000000000000000000000000000000AF
:10015000000000000000000000000000000000009F
:10016000000000000000000000000000000000008F
:10017000000000000000000000000000000000007F
:08018000000000000000000077
:1001C000044B05481B1A062B02D9044B03B11847F0
:1001D000704700BF6700002064000020000000009E
:1001E00005490648091A891001EBD171491002D05E
:1001F000034B03B1184770476400002064000020DF
:100200000000000010B5064C237843B9FFF7D8FF73
:10021000044B13B10448AFF300800123237010BDD9
:100220006400002000000000C04C000808B5084B26
:100230001BB108490848AFF300800848036813B9A8
:10024000BDE80840CCE7064B002BF9D09847F7E70C
:100250000000000068000020C04C0008640000207E
:100260000000000053B94AB9002908BF00281CBF8C
:100270004FF0FF314FF0FF3000F07EB9ADF1080CC8
:100280006DE904CE00F006F8DDF804E0DDE90223B4
:1002900004B070472DE9F0478C460E460446089D91
:1002A000002B50D18A4217466CD9B2FA82FEBEF1B9
:1002B000000F0BD0CEF1200420FA04F401FA0EF660
:1002C00044EA060C02FA0EF700FA0EF44FEA174958
:1002D000220CBCFBF9F01FFA87F809FB10C642EAB2
:1002E000064600FB08F3B34209D9F61900F1FF32C4
:1002F00080F02281B34240F21F8102383E44F61A58
:10030000A2B2B6FBF9F309FB136642EA064403FB0B
:1003100008F8A04509D9E41903F1FF3280F00A81F9
:10032000A04540F20781023B3C44C8EB040443EA89
:1003300000400021002D62D024FA0EF400232C602E
:100340006B60BDE8F0878B4207D9002D55D00021A6
:1003500085E841000846BDE8F087B3FA83F100293B
:1003600040F09080B34202D3824200F2F880841AB7
:1003700066EB03060120B446002D40D085E810103E
:10038000BDE8F08712B90127B7FBF2F7B7FA87FE8D
:10039000BEF1000F35D1F31B4FEA17481FFA87FC57
:1003A0000121B3FBF8F0220C08FB103642EA0646A6
:1003B0000CFB00F3B34207D9F61900F1FF3202D269
:1003C000B34200F2CE801046F61AA2B2B6FBF8F3A2
:1003D00008FB136642EA06440CFB03FCA44507D95C
:1003E000E41903F1FF3202D2A44500F2B5801346AE
:1003F000CCEB040443EA00409CE729462846BDE8CC
:10040000F087CEF1200106FA0EF307FA0EF720FA74
:1004100001F94FEA1748CE4049EA0309B6FBF8FA5A
:100420004FEA194408FB1A661FFA87FC44EA0643A0
:100430000AFB0CF29A4200FA0EF40AD9DB190AF10F
:10044000FF3180F087809A4240F28480AAF1020A4C
:100450003B449B1A1FFA89F9B3FBF8F108FB1133EF
:1004600049EA034301FB0CF69E4207D9DB1901F16F
:10047000FF326BD29E4269D902393B449B1B41EA51
:100480000A418EE7C1F1200E22FA0EF48B4023437D
:1004900020FA0EF706FA01F44FEA134C26FA0EF68C
:1004A0003C43B6FBFCF9270C0CFB19661FFA83F8DA
:1004B00047EA064609FB08F7B74202FA01F200FADA
:1004C00001FA08D9F61809F1FF3041D2B7423FD9F5
:1004D000A9F102091E44F61BA0B2B6FBFCF40CFB0A
:1004E000146640EA064704FB08F8B84507D9FF1828
:1004F00004F1FF3028D2B84526D9023C1F4444EA13
:100500000940C8EB0707A0FB02894F4544464E4609
:1005100014D329D065B3BAEB040367EB060707FAD7
:100520000EFECB40CF404EEA030385E88800002151
:10053000BDE8F0871346F8E61046E0E6B8EB0204A3
:1005400069EB03060138E5E70446D8E7114695E76D
:100550008146C0E78A467CE7023B3C4448E70846C0
:100560000AE702383E442FE7C245E7D33E46D1E7CB
:100570002946BDE8F08700BF704700BF024B0A461E
:100580000146186800F028B900000020014B1868E7
:10059000704700BF0000002070B50F4E0F4D761B56
:1005A000B61018BF002405D0013455F8043B984715
:1005B000A642F9D10A4E0B4D761B04F081FBB61012
:1005C00018BF002406D0013455F8043B9847A642D2
:1005D000F9D170BD70BD00BF10560008105600085C
:1005E0001456000810560008024B0146186800F027
:1005F00047B900BF00000020024B0146186800F018
:10060000F9B800BF00000020844641EA000313F05F
:1006100003036DD1403A41D351F8043B40F8043B09
:1006200051F8043B40F8043B51F8043B40F8043BCC
:1006300051F8043B40F8043B51F8043B40F8043BBC
:1006400051F8043B40F8043B51F8043B40F8043BAC
:1006500051F8043B40F8043B51F8043B40F8043B9C
:1006600051F8043B40F8043B51F8043B40F8043B8C
:1006700051F8043B40F8043B51F8043B40F8043B7C
:1006800051F8043B40F8043B51F8043B40F8043B6C
:1006900051F8043B40F8043B403ABDD2303211D30C
:1006A00051F8043B40F8043B51F8043B40F8043B4C
:1006B00051F8043B40F8043B51F8043B40F8043B3C
:1006C000103AEDD20C3205D351F8043B40F8043B0C
:1006D000043AF9D2043208D0D2071CBF11F8013B0A
:1006E00000F8013B01D30B8803806046704700BFD0
:1006F000082A13D38B078DD010F003038AD0C3F1DF
:100700000403D21ADB071CBF11F8013B00F8013BC0
:1007100080D331F8023B20F8023B7BE7043AD9D37F
:10072000013A11F8013B00F8013BF9D20B78037054
:100730004B7843708B7883706046704770B4840741
:1007400046D0541E002A41D0CDB2034602E0621EBC
:10075000E4B3144603F8015B9A07F8D1032C2ED9B1
:10076000CDB245EA05250F2C45EA054519D903F117
:1007700010022646103E0F2E42F8105C42F80C5C28
:1007800042F8085C42F8045C02F11002F2D8A4F1CD
:10079000100222F00F0204F00F041032032C134455
:1007A0000DD91E462246043A032A46F8045BFAD8BD
:1007B000221F22F003020432134404F003042CB17C
:1007C000C9B21C4403F8011BA342FBD170BC7047A3
:1007D00014460346C2E700BF38B502FB01F42146C8
:1007E00000F04EF8054618B122460021FFF7A6FF9B
:1007F000284638BD30B481B151F8043C0439002B8F
:10080000B8BFC9181D4B1A682AB18A420AD90868AC
:100810000C18A24225D04A60196030BC70478B4248
:1008200003D81A465368002BF9D1146815198D4264
:100830000CD007D808680C189C4218D04B6030BC0C
:10084000516070470C23036030BC704709680C444A
:10085000111999421460E0D10ACB0C445360146022
:10086000DBE7146852684A6020440860D4E71C68DB
:100870005B684B60204408605160CEE708010020AF
:1008800070B5CD1C25F0030508350C2D38BF0C259F
:10089000002D06463BDBA94239D827490A6852B1E8
:1008A00013685B1B04D436E023685B1B1AD5224611
:1008B0005468002CF8D149681F4C002936D02946CD
:1008C000304600F0AFF8431C21D0C41C24F00304D0
:1008D000A04205D0211A304600F0A4F8013016D00D
:1008E000256004E00B2B0DD923601C44256004F126
:1008F0000B0020F00700231DC31A02D05A42E25019
:1009000070BD70BD94420ED063685360EFE70C2356
:100910003360002070BD0B2B03D8536814460B6066
:10092000E5E71446E0E713461446F8E7304600F0E2
:1009300079F86060C3E700BF0801002000000000F4
:10094000F8B5144B1C68A36B05461BB100221D6152
:100950005A61F8BD1820FFF747FE01220023A0636B
:10096000C0E9042343F20E3303800B238381052265
:10097000034642814AF6CD3741F234264EF26D6489
:100980004DF6EC61002247808680C48001811D61A4
:100990005A61F8BD00000020F8B51F4B1C68A16B20
:1009A00091B10B691D4C48691D4A04FB03F402FB1D
:1009B0000040A3FB02230132034443F1000323F070
:1009C0000040C1E90423F8BD1820FFF70DFE10A375
:1009D000D3E900230146A0630126002743F20E3528
:1009E0004AF6CD34C0E9046741F234204EF26D6717
:1009F0004DF6EC660D804C8005250B248880CF8059
:100A000006480E814D818C81C1E90423F8BD00BFE9
:100A10002E7F954C2DF45158000000202DF4515894
:100A20002D7F954C38B5074C0023054608462360BA
:100A300001F058FC431C00D038BD2368002BFBD0CC
:100A40002B6038BD7C030020000000000000000087
:100A50000000000000000000000000000000000096
:100A60000000000000000000000000000000000086
:100A70000000000000000000000000000000000076
:100A800090F800F06DE9024520F007016FF0000CCE
:100A900010F0070491F820F040F049804FF0000476
:100AA0006FF00700D1E9002391F840F000F1080051
:100AB00082FA4CF2A4FA8CF283FA4CF3A2FA8CF389
:100AC0004BBBD1E9022382FA4CF200F10800A4FAF0
:100AD0008CF283FA4CF3A2FA8CF3E3B9D1E9042344
:100AE00082FA4CF200F10800A4FA8CF283FA4CF37B
:100AF000A2FA8CF37BB9D1E9062301F1200182FA35
:100B00004CF200F10800A4FA8CF283FA4CF3A2FA3A
:100B10008CF3002BC6D0002A04BF04301A4612BA48
:100B2000B2FA82F2FDE8024500EBD2007047D1E94B
:100B3000002304F00305C4F100004FEAC50514F0DA
:100B4000040F91F840F00CFA05F562EA05021CBFAB
:100B500063EA050362464FF00004A9E708B500F018
:100B60000DFB00F04BFB00F087FB00F035F800F0C8
:100B70005DFA064A0021742000F070FA044A102140
:100B8000702000F06BFA00F0A1FAFCE7CD0C000831
:100B9000890F000852B138B50C468D18FFF7FCFEDE
:100BA00004F8010BAC42F9D1002038BD0020704799
:100BB00008B5034A3021722000F068FA002008BD11
:100BC000BC02002008B5034A2021722000F05EFA22
:100BD000002008BDEC02002070B52D4C2D4D2E4E8E
:100BE000002284B02046114601F096FB2B4A0021DA
:100BF000312000F033FA2A4A0021322000F02EFA88
:100C0000802304F10800274A6360102102F018FDD8
:100C100004F11400244A102102F012FD04F1200016
:100C2000224A102102F00CFD04F12C00204A102170
:100C300002F006FD04F138001E4A102102F000FD0A
:100C400004F144001C4A102102F0FAFC04F15000A7
:100C50001A4A102102F0F4FC04F15C00184A102139
:100C600002F0EEFC0FCD3060716003CDF360B26036
:100C70000023144D306118227161009201962046C4
:100C800002951A46104901F06BFE04B070BD00BF1A
:100C900010010020D84C000874020020B10B00089D
:100CA000C50B0008D04F0008D4500008DC500008E5
:100CB000E051000864520008E85200086C53000834
:100CC000F0530008BC010020950B00082DE9F0430B
:100CD000A84EA94D97B0802200213046FFF72EFD87
:100CE0000023A64AA6480C2103F038FF00F0E8FADA
:100CF000D5F8A420002302930393002A40F0CD806E
:100D00000620D5F8049003F017FD8046002800F077
:100D1000C48002AA03A9062003F08AFF0746002820
:100D200040F0BB80029C4046A9F10D031C1B03F060
:100D300011FD241A072C804640F2AF80A145C0F077
:100D4000AC80B31C4FF0010922461846FF213770D2
:100D500086F80190FFF7F2FC029E275403462344D5
:100D6000F1B201F10802DC1D01F1040C99714FF0A0
:100D7000060E3021424483F804C09A7083F805E0DF
:100D800032465970D97020460399FFF73DFCA319EC
:100D90004FF0040E0521A155424603EB0E007749A2
:100DA0005F7083F8038083F802E0FFF72DFC6C6826
:100DB00048462146FFF7E2FB0646002800F0D280B5
:100DC00021464846FFF7DAFB0746002800F0CC80B2
:100DD0006B6B002B00F0C4802B6C002B00F0C080EC
:100DE000AB6A002B00F0BC8004A801F061FF07A8EB
:100DF00001F05EFF0AA801F05BFF0DA801F058FFAB
:100E000010A801F055FF13A801F052FF6A68594974
:100E1000594D04A802F01CF8002835D0A0F58644EE
:100E200004A801F04DFF07A801F04AFF0AA801F04D
:100E300047FF0DA801F044FF10A801F041FF13A8DF
:100E400001F03EFF8CB1E4B23046FFF7D5FB3846E7
:100E5000FFF7D2FB00F03CFA464A3021722000F046
:100E600015F9204617B0BDE8F083434D3A462846B1
:100E7000314601F05FFA04460028E4D16A683D4833
:100E80003146FFF7C1FBDFE705F1080104A802F0D6
:100E9000B1F9002803DB3B4CC2E78024DAE705F117
:100EA0007403009305F1440205F12C0304A907A87B
:100EB00002F004FF0028B1D105F18004009405F18F
:100EC000380305F1500204A90AA802F0F7FE002831
:100ED000A4D10AAA07A904A802F0F0FA00289DD11B
:100EE00005F15C0204A907A802F026FB002895D1B1
:100EF000A4F1540207A904A802F09EFE00288DD197
:100F000005F1380204A907A802F016FB002885D1D4
:100F100007AA0AA904A802F0A9FA00287FF47EAF64
:100F20006A68314604A801F0D1FF044604A801F024
:100F3000C7FE07A801F0C4FE0AA801F0C1FE0DA873
:100F400001F0BEFE10A801F0BBFE13A801F0B8FE30
:100F5000002C8AD0A4F58644002C7FF474AF84E77B
:100F6000802471E7F02475E73046FFF745FBF02455
:100F700070E700BF8C020020100100203C0200201E
:100F8000F44C0008FCBCFFFF704700BF0120704715
:100F9000002849DD30B401EB40000EE01370A5F1EC
:100FA0003003DCB2092C1AD8147844EA0313137006
:100FB0000231884202F101021FD04C780D78A4F171
:100FC0003003DBB2092BE9D9A4F14103052B17D873
:100FD000373CA5F130031470DCB2092CE4D9A5F13B
:100FE0004103052B13D81378373D023143EA051529
:100FF0008842157002F10102DFD1002030BC704739
:10100000A4F16103052B0CD8573C1470C7E7A5F178
:101010006103052B05D81378573D43EA0515157074
:10102000C6E7012030BC70470020704709490B68B3
:10103000092B0DDC30B403EB430201EB8202762571
:1010400000241571946030BC013303480B60D060FC
:10105000704700BF800000208D0F000830B40A4C9C
:101060002368092B0DDC3F290BD803EB430504EB68
:10107000850501332871A960EA602360002030BC37
:101080007047012030BC704780000020F8B50F4643
:10109000144600F039F9002F10DD0B4D2744264689
:1010A00014F8013B1B09E85C00F02EF9337803F0DB
:1010B0000F03E85C00F028F9A742F0D10A20BDE850
:1010C000F84000F021B900BF044D00082DE9F043BD
:1010D000294FB3B000F004F9396800290FDD3B79DE
:1010E00083420DD03B1D002403E013F80C2F8242F5
:1010F00007D001348C42F8D133B0BDE8F083FBD087
:1011000000244FEA440909EB040807EB8808D8F8E3
:1011100008305B0015D00DF14706002508E00D28CA
:10112000EAD0D8F8083006F8010FB5EB430F08D223
:1011300000F0D6F80A2805F10105F0D133B0BDE87A
:10114000F08300F0CDF80A2801D00D28D4D14C440A
:1011500007EB840402AAA06812A9FFF719FF002870
:10116000CAD1E36802A8984732AA012102F8C40D47
:101170007A20FFF78BFFBFE780000020F0B597B023
:10118000002403274FF4A0230CA801250D930C97EE
:101190001094149400F0C8F821460F2302A802937B
:1011A000049405940694039500F00CFC114B124E28
:1011B0005A6942F400225A615B690A9703F40023DA
:1011C000019330464FF4C04307A90793019A08954D
:1011D000099400F0E1FC2A4630464FF4005100F03B
:1011E000C7FD2A4630464FF4804100F0C1FD17B0DC
:1011F000F0BD00BF001002400008004830B589B0C3
:101200001A4C03224FF4C0650220012107230395E5
:101210000490059106920793636943F40033636178
:10122000636903F40033019303A94FF09040019BDD
:1012300000F0B2FC0E4B0F4A1A60A26942F48042E1
:10124000A261A26902F4804202920C2100224FF4B2
:1012500016441846029D5C6059619A60DA601A6112
:101260009A6100F0F9FE09B030BD00BF00100240E5
:101270000C03002000380140104B70B55A6942F44D
:1012800000325A615B6986B003F4003300934FF477
:10129000805403230122002501A94FF090400292BF
:1012A0000493009E0194039500F076FC2A462146A3
:1012B0004FF0904000F05CFD06B070BD00100240A1
:1012C00001224FF480514FF0904000F051BD00BF1B
:1012D00000224FF480514FF0904000F049BD00BF14
:1012E00000B583B041F2883301220DF107010548B2
:1012F00000F07CFF0028F5D19DF8070003B05DF8F1
:1013000004FB00BF0C03002000B583B002A941F22A
:10131000883301F8010D0122024800F009FF03B0F3
:101320005DF804FB0C0300202DE9F0430368DA07A5
:1013300083B07ED5B9494A6802F00C02042A00F055
:10134000C5814A6802F00C02082A00F0BB81476898
:10135000B7F5803F00F06982002F38D0AF4BB7F56A
:10136000A02F1A6800F01E8322F480321A601A68D7
:1013700022F480221A60A94E8368F16AA84A21F0FB
:101380000F010B43F3621768791C1160FF434FF0A4
:10139000000C4FF400344FF0010E06E001317B18D1
:1013A000642B4FF0010C00F2DA8194FAA4F3356853
:1013B00094FAA4F3B3FA83F303F01F030EFA03F3D2
:1013C0002B42EBD0BCF1000F32D0116030E0934ED5
:1013D000934A336823F480333360336823F48023E3
:1013E0003360F16A836821F00F010B43F3621368E5
:1013F000591C11606FEA030E4FF400344FF0010CDA
:1014000007E001310EEB0103642B4FF0010700F2FE
:10141000A68194FAA4F3356894FAA4F3B3FA83F39B
:1014200003F01F030CFA03F32B42EAD1002FCCD1B7
:1014300003689E074DD5794A516811F00C0F00F0F2
:10144000F980516801F00C01082900F0EF8006696D
:10145000002E00F0BB81012696FAA6F3B3FA83F3BF
:1014600003F1845303F584139B006D4A1E601768D3
:10147000DFF8A8C1B9191160FF434FF0000E022434
:1014800006E001317B18022B4FF0010E00F267815C
:1014900094FAA4F3DCF8005094FAA4F3B3FA83F3BB
:1014A00003F01F0306FA03F32B42EAD0BEF1000F4C
:1014B00040F08282594CF823226893FAA3F34169E1
:1014C000B3FA83F322F0F80201FA03F31343236023
:1014D00003681C072DD4590762D5504BDA69D20036
:1014E00000F10B81DA694F4D42F08052DA61DB691D
:1014F00003F080530193019B2C6814F480744FF027
:10150000010900F00281464A1168C768012F00F006
:101510009481424B1C6A002F00F02881052F00F0B7
:10152000BA8124F001041C621C6A24F004041C62C9
:1015300088E18669002E00F09480012191FAA1F4DF
:10154000394B374ADFF8D4C0B4FA84F423449B0003
:101550008E461960166874181460F643002702213D
:1015600006E001343319022B4FF0010700F2FC8032
:1015700091FAA1F391FAA1F391FAA1F3DCF82450C6
:1015800091FAA1F3B3FA83F303F01F030EFA03F306
:101590002B42E6D0002F40F09380036859079CD47B
:1015A000C369B3B31D4D6A6802F00C02082A54D017
:1015B000022B4FF0807300F0868193FAA3F3B3FA05
:1015C00083F303F1845303F584139B00144A00262C
:1015D0001E601768791C1160FF434FF000704FF0D8
:1015E000010E06E001317B18022B4FF0010600F2DC
:1015F000B68090FAA0F32C6890FAA0F3B3FA83F3C4
:1016000003F01F030EFA03F32342EBD1002E40F048
:10161000C781002003B0BDE8F08300BF0010024086
:10162000FC00002000700040208190105268D5031B
:101630003FF50DAF022292FAA2F1AE490C6892FA80
:10164000A2F2B2FA82F202F01F02012101FA02F2C2
:10165000224272D002698A426FD0012003B0BDE8F5
:10166000F083012797FAA7F1A34BA44ADFF884C2BD
:10167000B1FA81F10B449B0002211E601368DC1952
:1016800014606FEA030E06E001340EEB0403022B34
:101690004FF0010668D891FAA1F391FAA1F391FAFB
:1016A000A1F3DCF8245091FAA1F3B3FA83F303F029
:1016B0001F0307FA03F32B42E6D1002E3FF46DAF70
:1016C00014606AE74A68D7037FF541AE4FF40032F1
:1016D00092FAA2F187490C6892FAA2F2B2FA82F267
:1016E00002F01F02012101FA02F222423FF4A1AEF0
:1016F0004268002A7FF49DAEAFE7814D2C6814F458
:1017000080744FF000097FF4FEAE2B687B4A43F4EF
:1017100080732B601668711C1160663605E001311C
:101720008E424FF0010400F086802B68DB05F6D571
:10173000002C3FF4EAAE1160E7E66E4DF82229680E
:1017400092FAA2F24469B2FA82F204FA02F221F0A9
:10175000F8010A431C072A607FF5BDAEE9E6116077
:10176000032003B0BDE8F0831460F9E724F001041E
:101770001C621C6A4D1C24F004041C629E46156009
:10178000C94302244FF0010C41F2883813E094FA67
:10179000A4F3DEF8246094FAA4F3B3FA83F303F01D
:1017A0001F030CFA03F333427DD001354B19434537
:1017B0004FF0010708D894FAA4F394FAA4F3002B8D
:1017C000E5D0DEF82060E6E71560C9E7012797FA63
:1017D000A7F3B3FA83F303F1845303F584139B0057
:1017E000464A1E601368DFF80CC1D91911606FEA10
:1017F000030E022406E001310EEB0103022B4FF031
:101800000106ACD894FAA4F3DCF8005094FAA4F3DF
:10181000B3FA83F303F01F0307FA03F32B42EAD171
:10182000002E40F0CB80036853E6324A136843F43D
:10183000803313609FE5166092E72E4C236A43F0D5
:10184000010323624D1C1560C9434FF0000C0224B4
:10185000DFF8A0E0012741F2883813E094FAA4F3FE
:10186000DEF8246094FAA4F3B3FA83F303F01F03C1
:1018700007FA03F3334221D101354B1943454FF0A9
:10188000010CA1D894FAA4F394FAA4F3002BE5D0A8
:10189000DEF82060E6E744F004041C621C6A44F0B1
:1018A00001041C62CEE767B9B9F1000F3FF478AECE
:1018B000104AD36923F08053D36171E6BCF1000F65
:1018C000F2D01560F0E793FAA3F3B3FA83F303F1D0
:1018D000845303F584139B00084A00271F60136894
:1018E000591C11606FEA030E4FF000744FF0010CA9
:1018F00010E000BF0010024020819010FC0000208A
:101900000070004001310EEB0103022B4FF0010784
:101910003FF625AF94FAA4F32E6894FAA4F3B3FA31
:1019200083F303F01F030CFA03F33342EAD1002FD1
:1019300040D1234D446A6B68016A23F47413214338
:101940000B436B604FF0807393FAA3F3B3FA83F306
:1019500003F1845303F584139B0001261E6017686E
:10196000B9191160FF434FF0000E4FF0007006E010
:1019700001317B18022B4FF0010E3FF6F0AE90FACA
:10198000A0F32C6890FAA0F3B3FA83F303F01F03DB
:1019900006FA03F32342EBD0BEF1000F3FF439AE59
:1019A000116036E642F480221A601A6842F48032EE
:1019B0001A60E0E41160BCE711607BE5116032E77A
:1019C00000100240714A136803F007038B42F0B520
:1019D0000BD2136823F007030B431360136803F063
:1019E0000703994201D00120F0BD03689D0706D589
:1019F000674D82686C6824F0F00422436A60DC075B
:101A000033D54468012C00F08980022C55D0022285
:101A100092FAA2F55E4D2F6892FAA2F2B2FA82F221
:101A200002F01F02012606FA02F23A42DBD06A688F
:101A3000584E22F0030214436C6037687A1C3260FF
:101A4000FF434FF0000E41F2883C06E00132BC1823
:101A500064454FF0010E00F291806C6814F00C0F99
:101A6000F4D1BEF1000F40F08E80484C226802F0A5
:101A70000702914209D2226822F007020A4322603B
:101A8000226802F007029142ADD15A0706D5404CB8
:101A9000C268616821F4E0610A43626013F00803E0
:101AA00009D03B4A0169536823F4605343EAC103F8
:101AB00053600020F0BD1846F0BD4FF0007292FA5E
:101AC000A2F4334D2E6892FAA2F2B2FA82F202F038
:101AD0001F02012404FA02F2324284D06A682D4EB9
:101AE00022F0030242F002026A6037687C1C346014
:101AF000FF434FF0000E41F2883C05E001343A19F3
:101B000062454FF0010E3CD86A6802F00C02082AC8
:101B1000F4D1BEF1000FA8D03460A6E74FF4003234
:101B200092FAA2F51A4D2E6892FAA2F2B2FA82F255
:101B300002F01F02944034423FF455AF6A68154EDC
:101B400022F0030242F001026A6037687C1C3460B4
:101B5000FF434FF0000E41F2883C05E001343A1992
:101B600062454FF0010E0CD86A6802F00C02042A9C
:101B7000F4D1BEF1000F3FF478AFCDE7326003201F
:101B8000F0BD3460FBE732606FE700BF0020024029
:101B900000100240FC0000208C460968002900F07B
:101BA000DA802DE9F04FDFF8C4E183B000254FF073
:101BB000010879E04FEA45090323D0F800A003FAB1
:101BC00009F3DB4304F0030B0AEA030A0BFA09FBEF
:101BD000013F4BEA0A0A012FC0F800A040F29780AB
:101BE000C768DCF808203B4002FA09F21343C360DF
:101BF000E30055D5584B584A9B6943F00103936164
:101C0000936925F0030909F1804903F0010309F5FF
:101C10008039019305F00303019AD9F808209B004D
:101C20000F279F40B0F1904F22EA070200F0868014
:101C30004A4FB84200F08480494FB84200F0838098
:101C4000484FB84200F08380474FB8420CBF04278A
:101C5000052707FA03F31343C9F80830DEF800300C
:101C6000F243E7034CBF33431340CEF80030DEF8B5
:101C70000430A7034CBF33431340CEF80430DEF8E2
:101C80000830E7024CBF33431340CEF80830DEF88B
:101C90000C30A40254BF02EA03061E43CEF80C60C7
:101CA000013531FA05F346D008FA05F212EA0106C9
:101CB000F6D0DCF8044024F01007022F7FF47AAF4E
:101CC0004FEAD50B00EB8B0B05F0070ADBF8203051
:101CD000DCF810704FEA8A0A4FF00F0909FA0AF986
:101CE00023EA090907FA0AF343EA0903CBF820308B
:101CF0004FEA45090323076803FA09F3DB4304F0BD
:101D0000030A1F400AFA09FA4AEA070707608768C8
:101D100007EA030ADCF80C7007FA09F747EA0A0732
:101D200087604768C4F3001A27EA02075246AA40B0
:101D30003A43426054E703B0BDE8F08F00238AE7DE
:101D400008FA03F387E7022707FA03F383E7032779
:101D500007FA03F37FE770470010024000040048D1
:101D600000080048000C0048001000480004014032
:101D70000AB9816270478161704700BF0368416999
:101D80001A68F0B587680669C469D0F818E0814D13
:101D90003E43314322F41642214322F00C020A430F
:101DA0001A605F68C668016A27F440573E435E6068
:101DB0009A684EEA010122F430620A43AB429A600B
:101DC00048D0754A934265D0744A934272D0744A9F
:101DD000934218D0734A934205D0B4F5004F00F0F7
:101DE000B1800120F0BD02F5E032126B02F4400236
:101DF000B2F5800F12D00FD9B2F5000F66D0B2F550
:101E0000400F7CD0E9E702F5E232126B02F4401297
:101E1000B2F5801F02D06BD8002ADED1B4F5004F96
:101E20000ED141684A0802F56102B2FBF1F1C1F33B
:101E3000420221F00F010A4392B20020DA60F0BDA5
:101E400041684A0802F5E102B2FBF1F292B2DA60AF
:101E50000020F0BD544A5549126B02F00302B4F55C
:101E6000004F8A5C71D1082A6CD801A151F822F088
:101E7000231E0008231E0008051F0008451F000838
:101E8000231E0008451F0008451F0008451F0008C5
:101E9000D31E000802F5E632126B02F44032B2F5AE
:101EA000803FBBD0B8D9B2F5003F0FD0B2F5403F6C
:101EB00025D092E702F5E432126B02F44022B2F52B
:101EC000802FABD0A8D9B2F5002F2BD1B4F5004F9D
:101ED00004D141684A0802F58032A6E741684A0801
:101EE00002F50042B2FBF1F292B2DA600020F0BDDE
:101EF000B2F5001FEAD0B2F5401F7FF46EAFB4F523
:101F0000004F13D14068410801F1F47202F590428C
:101F1000B2FBF0F2C2F3420122F00F020A4392B286
:101F200000208BE7B2F5402FE9D056E74068410822
:101F300001F5740202F51052B2FBF0F292B2DA60CF
:101F40000020F0BD0022012078E7082A3FF649AFC3
:101F500001A151F822F000BF411E00087D1F0008BA
:101F60002D1F0008E31D0008411E0008E31D0008A6
:101F7000E31D0008E31D0008DD1E00084268054956
:101F8000530803F5E103B3FBF2F39BB2CB600020EF
:101F9000F0BD00BF00380140004400400048004050
:101FA000004C00400050004000100240144D00085A
:101FB000F0B40546002427482968EC6606680B68DB
:101FC000721C1F0702600FD5F74306E00132BB18F1
:101FD000B3F1007F4FF0010424D2CB6903F4001366
:101FE000002BF3D0002C33D10B685B0710D5F443E2
:101FF0000268002606E00132A318B3F1007F4FF01B
:1020000001060FD2CB6903F48003002BF3D0EEB9A5
:102010002023002085F8693085F8680085F86A304B
:10202000F0BC70470B68026023F4D0730B608B68C0
:102030002022002423F001038B60032085F869200F
:1020400085F8684085F86A20F0BC70470260DFE7D9
:102050000260C9E7FC00002048B390F8693010B571
:1020600003F0FF02F3B10268242380F8693013689B
:1020700023F0010313600446FFF780FE012814D00B
:1020800023685A6822F490425A609A6822F02A0221
:102090009A601A6842F0010220461A60BDE81040BA
:1020A000FFF786BF80F86820DDE7012010BD012022
:1020B000704700BFF0B5DFF874E00668DEF8007026
:1020C000059D6FEA030C002301E06C1C0BD1F46941
:1020D00031EA04040CBF012400249442F5D00BBB68
:1020E00000231846F0BDD5B101370CEB0704A5421B
:1020F0004FF00103EBD2CEF80070336823F4D073B5
:102100003360B368202223F001030021B36080F81C
:102110006920032380F8681080F86A20E1E7002B2B
:10212000EBD0E8E7CEF80070DAE700BFFC00002053
:102130002DE9F0410E4690F86910202982B003D0B5
:10214000022002B0BDE8F0819EB392B31F4690F822
:102150006830012B0446F3D0234BA0F85020D3F86D
:10216000008008F101011960002021230121E066AF
:1021700084F8681084F86930A4F85220B4F85250FA
:10218000ADB2434600228021204605B3B4F8525038
:102190000097013DADB2A4F85250FFF78BFFA0B9F4
:1021A000A368B3F5805F06D0236832781A850136BC
:1021B000E4E70120C5E72369002BF5D136F8023B9F
:1021C0002268C3F308031385D8E70320B9E7009713
:1021D0002A464021FFF76EFF0028F6D1202384F81D
:1021E000680084F86930ACE7FC0000202DE9F0437A
:1021F0000E4690F86A10202983B003D0022003B065
:10220000BDE8F083002E43D0002A41D01F4690F84D
:102210006830012B0446F1D0314B0068D3F80080C0
:10222000A168012584F868504FF0FF35056208F178
:1022300001001860B1F5805F4FF000004FF02203FD
:10224000E066A4F8582084F86A30A4F85A203FD0F9
:1022500091B3B4F85C90B4F85A50ADB24346002242
:102260002021204605B3B4F85A500097013DADB285
:10227000A4F85A50FFF71EFFE0B9A368B3F5805FDA
:1022800008D023689B8C09EA030333700136E2E728
:102290000120B4E72369002BF3D123689B8C09EA62
:1022A000030326F8023BD6E784F86850284684F8F2
:1022B0006A10A4E70320A2E7236923B14FF07F0946
:1022C000A4F85C90C7E74FF0FF09A4F85C90C2E760
:1022D0002369002BF7D140F2FF19A4F85C90BAE70C
:1022E000FC0000200A4A08B5136873B11844694617
:1022F000884202D81060184608BDFEF747F90C2343
:1023000003604FF0FF33184608BD024B1360EDE742
:10231000040100208003002070B504460E461546D7
:102320000021AC22FEF70AFAC4F8A460C4F8A85051
:1023300070BD00BF70B5044686B00D4603A81646B2
:1023400000F0B6FC2946626803A800F081FD38B1B0
:10235000A0F5854403A800F0B3FC204606B070BD8C
:1023600004F10805294603A800F044FF002801DB1A
:102370000E4CEFE704F1680203A900922B4604F12A
:1023800014020846646801F099FC0028E0D1224656
:10239000314603A800F09AFD044603A800F090FC23
:1023A000002CDAD0A4F58544D7E700BF7CBDFFFF41
:1023B0002DE9F04F446BA1B0002C00F07E81046C3D
:1023C000002C00F07A81846A002C00F076810446AB
:1023D00008A80D469946164600F06AFC0BA800F0C6
:1023E00067FC0EA800F064FC11A800F061FC14A8C2
:1023F00000F05EFC17A800F05BFC002D6DD01AAF5A
:1024000038460DF1740800F053FC404600F050FCD3
:102410004946626808A800F01BFD8346F0B108A891
:1024200000F04EFC0BA800F04BFC0EA800F048FC9E
:1024300011A800F045FC14A800F042FC17A800F019
:102440003FFC384600F03CFC404600F039FCBBF154
:10245000000F3DD1584621B0BDE8F08F04F10809C6
:10246000494608A800F0C6FE002853DB08A800F083
:1024700027FC0BA800F024FC0EA800F021FC11A8FA
:1024800000F01EFC14A800F01BFC17A800F018FCBC
:102490006FF0030BD5E704F10809494608A800F0DE
:1024A000A9FE0028C0F2808108A800F009FC0BA852
:1024B00000F006FC0EA800F003FC11A800F000FCE0
:1024C00014A800F0FDFB17A800F0FAFB6FF0030B57
:1024D000ABF5864021B0BDE8F08F4946626808A898
:1024E00000F0B6FC83460028D5D008A800F0E8FB31
:1024F0000BA800F0E5FB0EA800F0E2FB11A800F02D
:10250000DFFB14A800F0DCFB17A800F0D9FBABF54B
:102510008640DFE704F14402D4F8A030049204F1CD
:1025200050020392002B00F0CA8004F18C0A52463C
:102530005146504601F000F8834600287FF46FAF03
:102540004A465146504601F077FB834600287FF407
:1025500066AF04F198031A4619461846059300F031
:10256000EBFF059B834600287FF459AF4A46194686
:10257000184601F061FB8346BBF1000F7FF44FAFBB
:1025800008A95246084600F0D7FF834600287FF48A
:1025900046AF08A94A46084601F04EFB834600288C
:1025A0007FF43DAF04F12C0A5146012211A800F03E
:1025B000ADFF834600287FF432AF04F1380319469B
:1025C000012214A8059300F0A1FF834600287FF4A0
:1025D00026AF33462A461C2117A801F013FF834675
:1025E00000287FF41CAF17AA11A9384600F0A4FFF9
:1025F000834600287FF413AF049A3946384600F02A
:1026000035FF834600287FF40AAF33462A461C2153
:1026100017A801F0F7FE834600287FF400AF17AA41
:1026200014A9404600F088FF834600287FF4F7AEE7
:10263000039A4146404600F019FF834600287FF484
:10264000EEAE04F1740300933A46534608A90BA872
:1026500001F034FB834600287FF4E1AE059E04F1CF
:10266000800300934246334608A90EA801F026FBDA
:10267000834600287FF4D3AE0EAA0BA908A800F069
:102680001DFF834600285FD008A800F019FB0BA8A7
:1026900000F016FB0EA800F013FB11A800F010FBD1
:1026A00014A800F00DFB17A800F00AFB002D3FF462
:1026B0000FAF1AAF0DF17408C3E66948CBE604F119
:1026C00098030B2204F18C010597CDF8188007932D
:1026D000174698468B4661682A460139334640467C
:1026E00001F090FEDA464A46414680B9584601F06C
:1026F0007BFD012158B9584600F0EAFD60B1013F69
:10270000E9D1059FDDF81880DFF858B187E68346E8
:10271000059FDDF8188082E658460799059FDDF889
:1027200018804A4601F088FE834600287FF477AE81
:1027300004F16803009304F114024B4651465046DD
:1027400001F0BCFA834617E704F15C0208A90BA864
:1027500000F0F2FE8346002896D152460BA908A845
:1027600001F06AFA834600288ED1324608A90BA8E8
:1027700000F0E2FE8346002886D10BAA0EA908A825
:1027800000F074FE834600287FF47EAF002D4DD00C
:1027900008A904F19802084600F0CEFE834620B353
:1027A0001AAF0DF174083AE604F1740204F12C0A30
:1027B0000092534604F1440208A90BA801F07EFAE6
:1027C00004F15002834600287FF48FAE04F18001AB
:1027D00004F138060091334608A90EA801F06EFAFC
:1027E000834600283FF448AF7FE608A94A460846DA
:1027F00001F022FA83460028D2D162682A9908A8FB
:1028000000F064FB834608A800F05AFA0BA800F019
:1028100057FA0EA800F054FA11A800F051FA14A8C3
:1028200000F04EFA17A800F04BFA42E762682A99C6
:1028300008A800F04BFB834608A800F041FA0BA85B
:1028400000F03EFA0EA800F03BFA11A800F038FAAA
:1028500014A800F035FA17A800F032FAF7E500BF27
:1028600080BFFFFF80BBFFFF2DE9F04F83B0012B3E
:10287000DDF830A0DDF834B0DDF838805FD0002915
:1028800061D0BBF1000F5ED0B8F1000F5BD01AF140
:102890000B05446857D2AC4255D31646E71E0022BA
:1028A0000D460190CAEB070788F800204BBB0223B6
:1028B00088F8013008EB03099FB1642403E0013C70
:1028C00045D0002843D1012249463046A84799F80F
:1028D0000020002AF3D0002839D1013F09F1010975
:1028E000EBD1484600235246594600F8013BFDF71C
:1028F0008BFE01984246414603B0BDE8F04FFFF71A
:1029000019BD012388F8013008F1020327B3D81953
:10291000FF2203F8012B8342FBD100235246594684
:1029200000F8013BFDF770FE0198CDF8308043467A
:102930003246294603B0BDE8F04FFFF739BDD0F865
:10294000A440002C9BD0054803B0BDE8F08FA0F553
:10295000894003B0BDE8F08F1846DEE780BFFFFF77
:10296000F0B4D0F8A44014B9F0BCFFF77DBF014823
:10297000F0BC704700BFFFFF48B30023F0B5A1F1E2
:10298000040E1E4615462F68FC1A2C605EF8041FC4
:102990008C422CBF4FF0000C4FF0010C0136641A32
:1029A0009F422CBF63460CF10103B04245F8044B33
:1029B000E9D102EB80024BB111689942A1EB03030C
:1029C00042F8043B34BF01230023F5D3F0BD704728
:1029D000F0B5864687B00020BEF10F0F039102923A
:1029E0000193059040F2D080F446ACF1100C0398AE
:1029F0000299059A019B50F8044B4FF000050E68B0
:102A0000E3FB0425B71845F1000241F8047B50F8B8
:102A1000044B4FF000050E68E3FB0425B71845F1A1
:102A2000000241F8047B50F8044B4FF000050E689B
:102A3000E3FB0425B71845F1000241F8047B50F888
:102A4000044B4FF000050E68E3FB0425B71845F171
:102A5000000241F8047B50F8044B4FF000050E686B
:102A6000E3FB0425B71845F1000241F8047B50F858
:102A7000044B4FF000050E68E3FB0425B71845F141
:102A8000000241F8047B50F8044B4FF000050E683B
:102A9000E3FB0425B71845F1000241F8047B50F828
:102AA000044B4FF000050E68E3FB0425B71845F111
:102AB000000241F8047B50F8044B4FF000050E680B
:102AC000E3FB0425B71845F1000241F8047B50F8F8
:102AD000044B4FF000050E68E3FB0425B71845F1E1
:102AE000000241F8047B50F8044B4FF000050E68DB
:102AF000E3FB0425B71845F1000241F8047B50F8C8
:102B0000044B4FF000050E68E3FB0425B71845F1B0
:102B1000000241F8047B50F8044B4FF000050E68AA
:102B2000E3FB0425B71845F1000241F8047B50F897
:102B3000044B4FF000050E68E3FB0425B71845F180
:102B4000000241F8047B50F8044B4FF000050E687A
:102B5000E3FB0425B71845F1000241F8047B50F867
:102B6000044B4FF000050E68E3FB0425B71845F150
:102B7000000241F8047B059202910390BCF10F0F13
:102B80003FF633AF0EF00F0EBEF1070F68D9039872
:102B90000299059A019B50F8044B4FF000050E680E
:102BA000E3FB0425B71845F1000241F8047B50F817
:102BB000044B4FF000050E68E3FB0425B71845F100
:102BC000000241F8047B50F8044B4FF000050E68FA
:102BD000E3FB0425B71845F1000241F8047B50F8E7
:102BE000044B4FF000050E68E3FB0425B71845F1D0
:102BF000000241F8047B50F8044B4FF000050E68CA
:102C0000E3FB0425B71845F1000241F8047B50F8B6
:102C1000044B4FF000050E68E3FB0425B71845F19F
:102C2000000241F8047B50F8044B4FF000050E6899
:102C3000E3FB0425B71845F1000241F8047B50F886
:102C4000044B4FF000050E68E3FB0425B71845F16F
:102C5000000241F8047B0592029103900EF0070EEA
:102C6000BEF1000F15D003980299059A019B50F808
:102C7000044B4FF000050E68E3FB0425B71845F13F
:102C8000000241F8047B059202910390BEF1010E0F
:102C9000E9D10299059A0B68134441F8043B059A5F
:102CA000934234BF012200220592F4D307B0F0BD55
:102CB00020B10023012280E80C008360704700BF30
:102CC000B8B110B50446806868B16268531E42B15D
:102CD00002460021013BB3F1FF3F116002F1040203
:102CE000F8D1FDF789FC0023012284E80C00A360E1
:102CF00010BD704742F21073994228D82DE9F04177
:102D00004568A94202D80020BDE8F0810C4606467D
:102D100004212046FDF732FC8046D8B1B76887B160
:102D2000AA003946FDF770FC6B1E3DB13A46002102
:102D3000013B581C116002F10402F9D13846FDF73D
:102D40005BFC7460C6F808800020BDE8F0816FF07D
:102D50000F0070476FF00F00BDE8F08188422CD063
:102D6000F8B58C680E4654B34D686B1E07460BD001
:102D700054F823109A00224421B106E052F8045D71
:102D800065B923465C1EF9D1012533683B602946AD
:102D90003846FFF7AFFF044610B1F8BD1D46F4E713
:102DA0007A68B86821469200FDF7C8FCAA00B168AD
:102DB000B868FDF729FC2046F8BD00207047FFF7F2
:102DC0007FFF2046F8BD00BF70B50E4601210546C5
:102DD000FFF790FF044688B96A68A8689200214608
:102DE000FDF7ACFC002E86EAE671AA68A1EBE6715D
:102DF000B4BF4FF0FF33012311602B60204670BD3C
:102E00004368DBB1013B1ED0806850F823109A0064
:102E1000024419B114E052F8041D89B9013BFAD1FA
:102E20000168202300204FF0004202E001302028FA
:102E300003D00A424FEA5202F8D01B1A18467047D4
:102E40005B012033EEE7826820231168EAE700BFC8
:102E50002DE9F0410746884615464AB10C780B46E5
:102E60001CB131E013F8011F19B90134A542F9D1A1
:102E70002C462E1B16F0030118BF012101EB960111
:102E80003846FFF737FF08B1BDE8F0810146384604
:102E9000FFF79AFF0028F7D1A542F5D9B968454454
:102EA00004464FEA940EE30015F8012D51F82E70F8
:102EB00003F0180302FA03F301343B43A64241F83E
:102EC0002E30EED1BDE8F0810024D2E7F8B51446EB
:102ED0000D460746FFF794FF0730C608B44217D3E4
:102EE000224600212846FDF729FC7EB12A1900233D
:102EF0009808B968DC0051F8205004F01804013338
:102F000025FA04F4B34202F8014DF1D10020F8BDD6
:102F10006FF00700F8BD00BFF8B50D460646FFF795
:102F20006FFF73682844B0EB431F4FEA551405F058
:102F30001F0534D8DCB173689C423CD203F1804257
:102F4000B068013A121B00EB820200EB830300EB36
:102F5000840752F8041943F8041DBB42F9D12346F3
:102F600000EB8303002243F8042D9842FBD1A5B166
:102F700071688C4211D2B268C5F1200602EB84035D
:102F800002EB81040022186800FA05F10A4343F8B5
:102F9000042B9C4220FA06F2F5D10020F8BD10F077
:102FA0001F0118BF012101EB50113046FFF7A2FEAF
:102FB0000028BFD0F8BD002BD9D0B068D0E700BF43
:102FC0004268F0B44E09964233D801F01F012FD069
:102FD000CEB1931B0BD085682C4604EB830705EB21
:102FE000860555F8046B44F8046BBC42F9D19A424B
:102FF00009D98468002504EB830304EB820443F8B9
:10300000045B9C42FBD181B17AB18568C1F1200695
:1030100005EB8202002352F8040D20FA01F4234349
:103020009542136000FA06F3F5D10020F0BC70471A
:1030300019B10021F0BCFFF7C7BE002AF5D00B463E
:10304000D7E700BF436870B473B103F18044013C1B
:10305000826852F8245002EB84021DB11BE052F842
:10306000044DC4B9013BFAD14A68002A44D002F1A8
:1030700080438D68013B05EB830155F823301BB17C
:103080003CE051F8044D94B9013AFAD1181C18BF2C
:10309000012070BC70474A6822B302F180448D68F9
:1030A000013C05EB840155F82440002CECD09A42F9
:1030B00018D39A4219D8E3B103F180448168013CE6
:1030C000A20051F8246055F82400864211442A4495
:1030D00008D80AD3013B0CD051F8044D52F8040D26
:1030E0008442F6D9012070BC70474FF0FF3070BCAD
:1030F0007047184670BC70471046CAE70023D8E7EF
:103100002DE9F04F85B05C680F9D0134AC426ED85C
:10311000109C2668002E6AD01F460C4693468246B5
:10312000AA00304600210093FDF708FB2368D7F87A
:103130000480109A43451268029228BF43460193C7
:10314000B8F1000F50D008F101039B00194603931A
:10315000002602EB01091546DAF80830DBF800100A
:1031600053F826702C680B68019803FB07440E9BEC
:103170002A4603FB04F43B46FFF72AFC009923464A
:103180002A46013689684046FFF722FC0023B045F5
:1031900045F8047B49F8043FDED1039B029A043BC7
:1031A0001A440292039A0299DAF80800FDF72CFA01
:1031B000009C50462146FFF745FF002809DB4046AA
:1031C000DAF80820A168FFF7D7FB002005B0BDE8BA
:1031D000F08F109BDAF808101A684046FFF7CCFB16
:1031E000002005B0BDE8F08F04230393DAE76FF009
:1031F0000300EBE7436870B473B103F18044013C12
:10320000826852F8245002EB84021DB11BE052F890
:10321000044DC4B9013BFAD14A688AB102F1804435
:10322000013C8E6856F8243006EB84041BB14DE057
:1032300054F8045DA5B9013AFAD1002B3BD00268DD
:10324000104670BC70474A68002AF8D002F18044EA
:10325000013C8E6856F8245006EB8404002DEAD019
:103260009A42ECD39A4204D90A685242104670BC82
:10327000704702680968002A01DD002921DB002966
:1032800001DD002A1FDBB3B103F18044013C8068FB
:10329000A10050F8245056F82440A5420844314477
:1032A000CED80CD3013B06D050F8045D51F8044D44
:1032B000A542F6D9C4E71A46104670BC7047524280
:1032C000BEE70122BCE74FF0FF32B9E70023C9E7B0
:1032D00010B5002984B081EAE174A4EBE174B4BFB5
:1032E0004FF0FF320122012301A9009401920293C1
:1032F000CDF80CD0FFF77EFF04B010BD90422DE951
:10330000F843074668D08842144603D0FFF726FDED
:103310000646E8B9D4F8049001233B60B9F1000FE8
:103320000FD009F18042013AA36853F8221003EB51
:10333000820319B10FE053F8041D61B9B9F1010915
:10334000F9D138460021BDE8F843FFF7D3BC064663
:103350003046BDE8F88349463846FFF7CBFC0646C1
:103360000028F5D1A068B96804383446354600E035
:1033700045460B6850F8042FE418144441F8044BF8
:103380002CBF0123002305F10108A24294BF1C4673
:103390005C1CC1450A46EBD8002CD9D002354FEA57
:1033A00088080CE013682344A34205F1010508F1E5
:1033B000040842F8043B34BF01240024C8D27968D1
:1033C0006B1E9942EED829463846FFF793FC002839
:1033D000BDD1BA684244E5E70C469BE72DE9F041D0
:1033E000884684B00546114640461646FFF72AFE39
:1033F000002838DB00230122AE420192029303939E
:1034000001AF25D0A84505D041462846FFF7A6FCC8
:103410000446B0B9706801232B6010B300F18042FC
:10342000B168013A01EB820351F822201AB104E09D
:1034300053F8042D0AB90138FAD1AA68FFF79CFAAB
:1034400000243846FFF73CFC204604B0BDE8F0817C
:1034500031463846FFF782FC04460028F1D13E464B
:10346000D0E7B168E9E76FF00900EEE7F8B50E685C
:10347000136803FB06F3002B074604DBFFF73EFF50
:1034800000B93E60F8BD0D46284611461446FFF7C8
:10349000D9FD002807DB224629463846FFF79EFF64
:1034A0000028EED0F8BD2A4621463846FFF796FFA1
:1034B0000028E7D176423E60F8BD00BFF8B50E683F
:1034C000136803FB06F3002B07460EDD0D46284666
:1034D00011461446FFF7B6FD00280CDB22462946AC
:1034E0003846FFF77BFF20B1F8BDFFF707FF002844
:1034F000FAD13E60F8BD2A4621463846FFF76EFFF6
:103500000028F1D176423E60F8BD00BF30B5002AF8
:1035100085B082EAE275A5EBE275B4BF4FF0FF34E7
:103520000124012301AA009501940293CDF80CD047
:10353000FFF7C4FF05B030BD2DE9F04F074689B055
:10354000002301208F42914602900590039304933B
:10355000069307935ED002AB884601934F450DF169
:10356000140B61D0D8F804507DB105F18042013AC6
:10357000D8F8083053F8221003EB820319B104E0A5
:1035800053F8042D0AB9013DFAD1D9F804407CB1B1
:1035900004F18042013AD9F8083053F8221003EBC5
:1035A000820319B104E053F8042D0AB9013CFAD1A1
:1035B00029193846FFF79EFB824648B15846FFF767
:1035C0007FFB0198FFF77CFB504609B0BDE8F08F08
:1035D00001463846FFF7F8FB82460028EED18CB151
:1035E00004F18046013EB600D9F80830BA689B590C
:1035F000D8F8081032442846FFF7EAF9013CA6F152
:103600000406F1D1D8F80020D9F8003003FB02F30A
:103610003B60D3E702AB18460193FFF79FFB82465E
:1036200058B9DDF8048099E758463946FFF796FB0C
:1036300082460028C2D1D94694E70DF1140BBDE7AC
:103640008B1E0E2B00F2D0802DE9F04F8BB04FF087
:1036500000090546012610460C4692460F46049680
:10366000CDF81490CDF81890FDF70AFA102C80468A
:1036700032D049462846FFF7A7FB014600283DD136
:10368000B8F1000F00F0AA8083460DF11009BBF1DC
:10369000000F00F0AC801AF80B20A2F13004E1B268
:1036A0000929A2F1410188BFFF240529A2F1610186
:1036B00098BFA2F13704052998BFA2F15704A74289
:1036C0001FD86FF0050148460191FFF7F9FA0199FB
:1036D00008460BB0BDE8F08FB0F1804F80F08180DC
:1036E000830013F01C0F14BF3146494601EB531100
:1036F0002846FFF7FFFA0146002831D00DF11009E6
:10370000E1E7294603AB07AA4846079608960993BE
:103710000397FFF711FF01460028D4D12B68012B36
:1037200007AA494610D003AB28460394079608968B
:103730000993FFF7C3FE01460028C4D10BF1010B2A
:10374000D845A4D10021BEE707930893284603ABD0
:1037500003940993FFF78AFE01460028EED0B2E7F2
:103760002846FFF731FB01460028C7D1B8F1000F0A
:1037700034D00AEB080B8300B8F1010F4FEAD006F2
:1037800003F01C0308F1FF383AD01BF801EDAEF14D
:1037900030025FFA82FCBCF1090FAEF1410988BF2B
:1037A000FF22AEF1610CB9F1050F98BFAEF13702FF
:1037B000BCF1050F98BFAEF15702944202FA03F331
:1037C00002D80DF110097CE7AA6852F826703B4335
:1037D00042F826300130B8F1000FCCD10DF11009BC
:1037E000B0E76FF0030074E76FF0030070479AF8DA
:1037F00000202D2A7FF44FAF4FF0FF322A609DE763
:103800009AF800202D2AC0D14FF0FF332B6075E7C6
:103810002DE9F04FA7B04FF0010B81460191002434
:1038200020AE184623A91D4617462094CDF88CB02B
:10383000CDF890B02596FFF7DDFC00286FD0294623
:103840003846CDF850B015941694CDF85CB0189465
:103850001994CDF868B01B941C94CDF874B01E94E4
:103860001F94CDF880B021942294FFF7EBFBA04287
:1038700020DB0DF1500840463946FFF76FFA0DF195
:103880005C0A044680B31AAB00930DF1740B4046FA
:10389000FFF716FA5046FFF713FA0098FFF710FAF1
:1038A0005846FFF70DFA3046FFF70AFA204627B0D0
:1038B000BDE8F08FB9F1000F05D021464846FFF76B
:1038C00083FA044638B9019B2BB339460198FFF7B8
:1038D00045FA0446F8B11AAB0DF150080DF15C0A37
:1038E00000930DF1740BD2E750462946FFF736FAE4
:1038F00004460028C7D17968CDF85CB01AAB023114
:1039000018460093CDF850B0FFF7F4F9044648B1DB
:103910000DF1740BBBE7002027B0BDE8F08F6FF00E
:103920000B00C4E701460098FFF74EFA0DF1740B47
:1039300004460028ABD158460221FFF7DBF90446C4
:103940000028A4D103213046FFF7D4F9044600280B
:103950009DD15046FFF754FA00F01F001F2800F0D9
:10396000C480C0F11F03194640460793FFF7D4FAFD
:10397000044600288BD107995046FFF7CDFA04463C
:10398000002884D1159B189A02930392013B013AB7
:1039900004939B1A05925A01114650460A930692C7
:1039A000FFF7BAFA044600287FF471AF0A9B9B0028
:1039B0001C460BE0DDF870E05EF8043001334EF891
:1039C0000430FFF77BFD002840F0918051464046CF
:1039D000FFF710FC0028524641464046EADA0699B5
:1039E0005046FFF7EDFA044600287FF450AF0298E6
:1039F0000E9400F1804100F1006200F180430398D1
:103A0000CDF83C900139013A091A121A059810971D
:103A1000023B80009B00890052010393031F0A9020
:103A200006920C930C461195CDF808A0049B059ABC
:103A300093427BD9039A199B16991C9D0432104618
:103A40000D920A9A9A580B58934252D34FF0FF3373
:103A50002B512B59DDF83490DDF808A001332B51A0
:103A6000039B043B0B9313AF30E0199B0C995958FF
:103A700011600A9959581C9B51601B591393594660
:103A8000012323AA5846239324932597FFF754FD37
:103A90000146002840F0B4803046FFF795F930BB6E
:103AA000049B229A012B18BF0B99169B18BF5858DC
:103AB000039910605958516053F8093093603146AA
:103AC0005846FFF797FB002869DD1C9D2B59013BE9
:103AD0002B5100215846FFF777F940B9059B1F9AF3
:103AE000002BC2D1199B0599C2E707944AE7044607
:103AF000CDE603982F190858AAB10993002308931B
:103B0000DDE9089A4B4649EA000948465146FCF768
:103B1000A9FB00234FF0FF328B4208BF824200D244
:103B20001046386095E74FF0FF30FAE7DDF83C903B
:103B30000E9C109F119DDDF808A0B9F1000F0BD06D
:103B400000994846FFF70AF90028D0D12B683A6857
:103B500003FB02F3C9F80030019B002B3FF497AE42
:103B600007994046FFF72CFA0028C0D13B68019F17
:103B7000149341463846FFF7F1F80028B7D10125E4
:103B800013AB139023A93846239524952593FFF76B
:103B900031FB00287FF47BAE3D60044677E61C9B3A
:103BA000CDF808A01B5913935146012323AA584668
:103BB000239324932597FFF7BFFC002837D106995C
:103BC0005846FFF7A9F9002831D15A4641464046E8
:103BD000FFF774FC58BB0123139023A9404623939D
:103BE00024932597FFF706FB00280BDB049B013B82
:103BF0000493069B203B06930B9B0393043C15E721
:103C0000044644E602995846FFF7A8F878B90699A1
:103C10005846FFF781F950B95A4641464046FFF7EA
:103C200025FC20B91C9A1359013B1351DEE7DDF83E
:103C300008A004462BE600BF2DE9F04184B0002522
:103C4000012604468846104601A917468DE8600003
:103C50000296CDF80CD0FFF7CDFAA8422ADB4246F7
:103C600028463B462146FFF7D3FD00BB054602E050
:103C7000FFF7FCFBD8B901A920468DE86000029649
:103C8000CDF80CD0FFF7B6FA00283A462146204678
:103C9000EEDB02E0FFF712FC48B939462046FFF799
:103CA000A9FA00283A4621462046F3DA002004B05B
:103CB000BDE8F0816FF00900F9E700BF2DE9F04F92
:103CC000ADF2746D19AF05900791002601251846D5
:103CD0001CA9994692463E601E971C951D95FFF7BC
:103CE00089FAB042C0F22581D9F808301C68E20791
:103CF00040F11F811CA950463E601C951D951E97E2
:103D0000FFF778FA0028C0F21481A31C5B0003F0CF
:103D1000080303EB040B03250BFB04F3C3F10203BD
:103D2000013D03FB0BFBF7D101244FF4C062294690
:103D30001CA811951295109413941495159516942A
:103D400017951895FCF7FAFC5046FFF759F8B0F5AF
:103D5000287F32D34023049306232024052508938B
:103D6000D9F804200598531C19461E46FEF7C2FFD9
:103D70001FAB8046069370B304EB44051CAB049E56
:103D800003EB850528460134FEF79AFFA64205F1AC
:103D90000C05F7D80698FEF793FF13A8FEF790FFDF
:103DA00016A8FEF78DFFDDF89836F3B19B68E3B1F6
:103DB00040460DF2746DBDE8F08FEF281DD84F28F6
:103DC00022D8172840F2B880082304930323042440
:103DD00002250893C4E718463146FEF78BFF80465C
:103DE000C8B1049B9C42C7D3D4E710A8FEF768FF74
:103DF00040460DF2746DBDE8F08F20230493052337
:103E0000102404250893ABE710230493042308240B
:103E100003250893A4E7710013A8FEF76BFF804603
:103E20000028DED1079B1B680A93013300F0B9809C
:103E3000DDF89836002B00F083809A68002A7FD046
:103E4000DDF89836186859689A680DF1400EAEE8AA
:103E50000700079E49463046FFF7CCF90028C0F21C
:103E6000978031464A460698FFF7E6FE80460028CE
:103E7000B7D1CBF100031A4607930092149B01932C
:103E800015AA02924B4612AA11A90698FFF738F913
:103E900080460028A5D110A90598FEF75FFF80464F
:103EA00000289ED115AA02924FF0010E149B079A8A
:103EB00000920FAE01931BAA1AA94B460598BE604B
:103EC000C7F800E0C7F804E0CDF83CE0FFF718F9C8
:103ED0008046002885D1089B012B40F0DE80DAF86F
:103EE00004300993059BDDF810800B9400251A1D02
:103EF00008332E46AB460C920D932C46002E5DD017
:103F0000013EDAF80830099A53F82230F34013F0F2
:103F1000010303D1002DF1D0012D56D008990134B1
:103F20000A1B93408C424BEA030B00F019810225D7
:103F3000E4E76FF003003CE70223089404930FE7E3
:103F4000012110A8FEF740FF804600287FF449AF0A
:103F5000D9F8041010A88901FEF7DEFF804600287A
:103F60007FF43FAF10A94A460846FFF765FE80463A
:103F700000287FF436AFDDF89836002B3FF469AFA8
:103F80000DF1400EBEE80700186059609A6060E7C6
:103F900007990698FEF7E2FE804600287FF421AFDD
:103FA00067E7079916A8FEF7D9FE804600287FF438
:103FB00018AF012216AB1692079339E7099BBBB1E4
:103FC000099B013B09931F269BE715AA149B0292AC
:103FD000079A0C9905988DE80C004B460D9AFFF74F
:103FE0008FF800288AD0CDF810800B9C8046F8E628
:103FF00023460894CDF810800B9C03B3059B049EC8
:10400000099D1A1D08330992984615AA149B02921D
:10401000079A099905988DE80C004B464246FFF730
:104020006FF84FEA4B0B0135002840F0DA8016EAB2
:104030000B0F40F0C780089BAB42E6D1049615AA4F
:104040000292149B079A009201250FAE01931BAABE
:104050001AA94B460598BE603D607D600F95FFF73D
:104060004FF8804600287FF4BCAE0A9B01337FF4F2
:10407000B8AEDAF80430002B3FF4B3AEDAF808300B
:104080001B68DB077FF5ADAE059A0A9911601046F3
:104090004946FFF7EBF98046A3E604EB4403D9F861
:1040A00004101CAA02EB830B58460131FEF722FED6
:1040B000804600287FF495AE06995846FEF74EFEDE
:1040C000804600287FF48DAE0BF104030993DDF8E0
:1040D00010800BF1080326460B93044615AA149B87
:1040E0000292079A09998DE80C0058464B460B9AA4
:1040F000FFF706F8013400285FD1A542EED8344618
:10410000651CA8454646CDF810807FF6E8AE05EB65
:1041100045031CAA02EB830BD9F804105846013161
:10412000FEF7E8FD0135ABF10C01002859D15846E6
:10413000FEF714FE4B4621AA20A9002851D115A84C
:10414000029007980090149801905846FEF7D8FF07
:104150000BF10C0B002844D1AE42DDD80496BEE62C
:10416000002415AA149B0292079A0C9905988DE8D1
:104170000C004B460D9AFEF7C3FF013400287FF474
:1041800032AF089B9C42ECD11CAB15AA0BEB4B0B3E
:1041900003EB8B010292149B079A0092019301F1A9
:1041A00008024B4604310598FEF7AAFF00287FF469
:1041B0001AAF834604460125A0E6CDF810803446A8
:1041C00080460EE615AA149B0292079A05988DE880
:1041D0000C0020A94B4621AAFEF792FF00283FF4CD
:1041E0002AAF04968046FCE52DE9F0478EB0002307
:1041F0000124074605A815460294059408940393E4
:1042000004930693079309930A93FEF7A7FD70B1F1
:10421000824608AC02A8FEF753FD05A8FEF750FD44
:104220002046FEF74DFD50460EB0BDE8F08708ACC5
:1042300029462046FEF792FD82460028EAD1DDF8A5
:1042400018E0BEF1000F00F0DA80079E0146043E40
:1042500056F8045F002204E0202A01F1010100F079
:10426000A18025FA02F313F0010302F10102F3D059
:10427000099ECEB10A9B4FF0000CA3F1040E6046DC
:104280005EF8045F002204E0202A00F1010000F043
:104290008F8025FA02F313F0010302F10102F3D03B
:1042A000814228BF01460E46314605A8FEF788FE2A
:1042B00082460028AED131462046FEF781FE824676
:1042C0000028A7D101258146089505950DF1040820
:1042D0000BA905A8CDF804900B950C95CDF834806A
:1042E000FEF788FF00287CD00699A9B1079B4FF004
:1042F000000AA3F1040C50465CF804EF002203E02E
:10430000202A00F1010042D02EFA02F313F001033B
:1043100002F10102F4D0014605A8FEF751FE8246E3
:1043200000287FF477AF099999B10A9B8646A3F1DB
:10433000040A5AF804CF002203E0202A0EF1010EED
:104340002BD02CFA02F313F0010302F10102F4D096
:1043500071462046FEF734FE824600287FF45AAFAD
:10436000214605A8FEF746FF002828DB05A92246BE
:104370000846FFF733F8824600287FF44BAF01214F
:1043800005A8FEF71DFE82460028A1D042E70AF1EB
:10439000010A5145B0D11946BEE701308842C8D163
:1043A0001946D6E7013086457FF452AF19465FE7DC
:1043B0000CF1010CB4457FF463AF1E4674E705AA07
:1043C00021462046FFF70AF8824600287FF422AFF4
:1043D00001212046FEF7F4FD824600283FF478AF25
:1043E00018E731462046FEF797FD824600287FF405
:1043F00011AF38462146FEF7B1FC82460AE7714606
:1044000036E700BFB1F5806F12D870B50C46ADF538
:10441000806D15460646694618462246A84720B9CB
:10442000224669463046FEF713FD0DF5806D70BDDE
:104430006FF00300704700BF2DE9F04FA5B00127D2
:1044400000900E46104621A91EAD14461E972197D6
:1044500022972395FEF7CEFE002840F31581002316
:1044600006A8224631460A930B930D930E931093A0
:104470001193139314930793089316931793199317
:104480001A931C931D931F93209309970C970F97D2
:1044900012970697159718971B971E97FFF7A4FE7C
:1044A000034660B30DF1240A0CAE0DF154080DF172
:1044B00060090FAA01920DF1480B1BAF5046009303
:1044C000FEF7FEFB3046FEF7FBFB0198FEF7F8FB1C
:1044D0005846FEF7F5FB06A8FEF7F2FB4046FEF74E
:1044E000EFFB4846FEF7ECFB3846FEF7E9FB2846B3
:1044F000FEF7E6FB009B184625B0BDE8F08F05AB44
:1045000021A906A80597219722972393FEF772FE0B
:1045100010B16FF00D03C5E70DF1240A3146504686
:104520002246FFF789FB0CAE03460028BDD130467A
:104530005146FEF713FC0DF1540803460028B6D18E
:1045400040462146FEF70AFC0DF1600903460028AB
:10455000AFD148462146FEF701FC03460028A8D10A
:104560000FAB184639460193FEF72EFC0DF1480BB0
:1045700003460028A1D101465846FEF725FC1BAF93
:10458000034600289AD101463846FEF71DFC034633
:10459000002893D101212846FEF716FC0346002887
:1045A0008CD10394019C02900E9B1B68DA0726D4E1
:1045B0006DE0FEF705FD42463946002862D11D9B9D
:1045C0001B68DB07384603D4209B1B68DB070AD532
:1045D000FEF74CFF52462946002853D12846FEF7E5
:1045E0006DFF00284ED101213846FEF7E9FC01217C
:1045F000002847D12846FEF7E3FC002842D11A9B49
:104600001B68DB074FF001014846D2D549463046CA
:10461000FEF7F0FD002864DB4A4631463046FEF7DF
:104620004DFF00282ED13A4621462046FEF746FF90
:1046300040BB2A4659465846FEF740FF10BB029B36
:10464000059301232193229321A905AB304623939F
:10465000FEF7D0FD0028A7D1039C0290029B059392
:10466000012321A921932293384605AB2393FEF71A
:10467000C1FD002822463946384624DAFEF7F6FE08
:104680000028EBD0034619E76FF0030034E701215F
:104690003046FEF795FC0028F4D1119B1B68D80723
:1046A00035D4149B1B68D90731D401212046FEF76D
:1046B00087FC0028E6D101215846FEF781FC00283E
:1046C0003FF472AFDEE721463846FEF793FD00283F
:1046D00022463946384629DBFEF7F0FE0028F2D0A4
:1046E000D0E7324649464846FEF7E8FE0028C9D1E1
:1046F000224639463846FEF7E1FE0028C2D15A4626
:1047000029462846FEF7DAFE002898D0BAE7424646
:1047100021462046FEF7AAFE0028B3D1524659464C
:104720005846FEF7CBFE0028BFD0ABE70098FEF757
:1047300015FB0346C2E600BF052805D0034B06283B
:104740000CBF18460020704701487047184D0008FC
:10475000484D000800B1007A704700BF00F086B8ED
:1047600000F038B810B5044600F02AF82046BDE83D
:104770001040FBF741BF00BF10B56C210120FBF7D3
:10478000FDFE044608B100F017F8204610BD00BF3A
:10479000012300F0E3B900BF002300F0DFB900BF40
:1047A00000F058B900F052B9012100F019B800BF6B
:1047B000002100F015B800BF6C220021FBF7BEBF3E
:1047C00030B100F16C020023037001309042FBD144
:1047D000704700BF08B56C22FBF716FF08BD00BF8D
:1047E0000023F0B40360436091B1114A114B826021
:1047F000C360114F114E124D124C134A134B0761F7
:1048000046618561C461026243628166F0BC7047A3
:104810000F4BC360A3F1BF430E4A8260A3F5DC23B4
:104820000D4F0E4E0E4D0F4C0F4AA3F5B673E6E733
:10483000D89E05C107D57C3617DD703039590EF783
:10484000310BC0FF11155868A78FF964A44FFABE49
:1048500085AE67BB67E6096A72F36E3C3AF54FA511
:104860007F520E518C68059BABD9831F2DE9F04F09
:10487000CFB0031D059300F1240405AA53F8040FDB
:1048800042F8040F9C42F9D14B4B04930D9B0193CA
:10489000099B039306AE494BDDF828E0DDF82CB008
:1048A000DDF83090029396E840050EAF4FF0000C13
:1048B00053E057F8085C57F83C4C57F81C0C57F875
:1048C000403C4FEAF542034482EA75424FEAB44065
:1048D00082EA952280EAF4101A4480EAD40414444F
:1048E0003C604FEAFE208BEA090202EA0E0280EAEF
:1048F000BE1080EA7E6082EA0903034446EA0800AB
:10490000234400EA0A0006EA0805019C05434FEA31
:104910007632029882EAB6022344034482EAB6520F
:104920000CF1010C03982A44BCF1400F184401F12A
:10493000040107F1040713441FD0CDF80CA0C246B0
:10494000B0461E46049BCDF804901A46D94652F84C
:10495000043F0293F34604928646BCF10F0FA8D899
:104960004A780C78CD788B78100440EA046242EAE9
:10497000050444EA03243C60B3E70A900598CDF8A7
:104980003490CDF830B0CDF82CE0CDF824A0CDF89F
:1049900020800796069306A90446002201E051F8FC
:1049A000043F54F8045F01322B44082A40F8043FC6
:1049B000F5D14FB0BDE8F08F784D0008982F8A42AE
:1049C0002DE9F0410646006883189A42174688464A
:1049D000336000F03F0002D973680133736098B10F
:1049E000C0F14004BC4202D937BBBDE8F08106F1FA
:1049F0002805414622462844FBF706FE2946304654
:104A0000FFF734FF3F1BA0443F2F1DD93D464446CE
:104A10002146403D3046FFF729FF3F2D04F1400479
:104A2000F6D8A7F1400323F03F03403307F03F07D8
:104A300098440020002FD8D0283630443A464146CA
:104A4000BDE8F041FBF7E0BD0020CDE70AB1FFF77C
:104A5000B7BF7047F0B502680D464168530F83B089
:104A600043EAC1030446D100180E02F03F02372A80
:104A70008DF800004FEA11404FEA134E94BFC2F187
:104A80003802C2F178021F0A8DF803300E0E0B0AAD
:104A90008DF807108DF805002F498DF80630204657
:104AA0008DF801E08DF802708DF80460FFF788FF43
:104AB000082269462046FFF783FFE37A2B7063895B
:104AC0006B70A3681B0AAB70A368EB70E37B2B7160
:104AD000E3896B71E3681B0AAB71E368EB71E37CFC
:104AE0002B72638A6B7223691B0AAB722369EB72A8
:104AF000E37D2B73E38A6B7363691B0AAB73636992
:104B0000EB73E37E2B74638B6B74A3691B0AAB742A
:104B1000A369EB74E37F2B75E38B6B75E3691B0A69
:104B2000AB75E369EB7594F823302B76638C6B7669
:104B3000236A1B0AAB76236AEB76A36E4BB994F813
:104B400027302B77E38C6B77636A1B0AAB77636A3A
:104B5000EB7703B0F0BD00BF784E0008F0B59DB014
:104B600007460D4616461C4601A86C220021FBF79D
:104B7000E5FD1CBB204B0493204B214A079303F116
:104B80002D632049039203F51E331F4A05910692B7
:104B90001E491F4A089103F29A2309920A931B9413
:104BA0001DBB314601A8FFF755FF01AB00221A706B
:104BB0001CA901338B42FAD11DB0F0BD1549164A2C
:104BC000164B059101F1372103920493144A154BBA
:104BD000069201F56701FA31134A0793134B0891C6
:104BE00009920A931B94002DDBD02A46394601A86E
:104BF000FFF7E6FED5E700BF85AE67BB7F520E51DB
:104C000067E6096A72F36E3C3AF54FA58C68059B1E
:104C1000ABD9831F17DD7030D89E05C107D57C3610
:104C200039590EF7310BC0FFA78FF964A44FFABEB4
:104C3000052870B415D00C4C0C4D04E01E7C864247
:104C400009D05C691D4605F11403002CF6D16FF004
:104C50002D0070BC7047AB690C600020136070BC05
:104C60007047034C0923F7E7B8540008944F000835
:104C7000AC540008002103E00B4B5B584350043157
:104C80000A480B4B42189A42F6D30A4A02E0002324
:104C900013600432084B9A42F9D3AFF30080FBF75C
:104CA0007BFCFBF75BFFFEE71856000800000020C6
:104CB000640000206400002080030020FEE7000064
:104CC000F8B500BFF8BC08BC9E467047F8B500BFF9
:084CD000F8BC08BC9E467047C9
:104CD800AABBCC03020100FFFFFFFFFF1122330A2A
:104CE8000B0CCCDDDDDDDDDD0000000048656C6C03
:104CF8006F20576F726C642100000000303132332E
:104D080034353637383941424344454601040802B0
:104D18000600000074540008200000004000000055
:104D2800B1470008A5470008A147000899470008AF
:104D38007947000865470008614700085D47000893
:104D4800050000007C5400081C0000004000000022
:104D5800A9470008A5470008A1470008914700088F
:104D68007947000865470008614700085D47000863
:104D7800982F8A4291443771CFFBC0B5A5DBB5E9BE
:104D88005BC25639F111F159A4823F92D55E1CAB32
:104D980098AA07D8015B8312BE853124C37D0C55C0
:104DA800745DBE72FEB1DE80A706DC9B74F19BC108
:104DB800C1699BE48647BEEFC69DC10FCCA10C24F8
:104DC8006F2CE92DAA84744ADCA9B05CDA88F976DC
:104DD80052513E986DC631A8C82703B0C77F59BF46
:104DE800F30BE0C64791A7D55163CA066729291472
:104DF800850AB72738211B2EFC6D2C4D130D38530F
:104E080054730A65BB0A6A762EC9C281852C7292D0
:104E1800A1E8BFA24B661AA8708B4BC2A3516CC7FE
:104E280019E892D1240699D685350EF470A06A1037
:104E380016C1A419086C371E4C774827B5BCB03486
:104E4800B30C1C394AAAD84E4FCA9C5BF36F2E6824
:104E5800EE828F746F63A5781478C8840802C78CB3
:104E6800FAFFBE90EB6C50A4F7A3F9BEF27871C6B6
:104E780080000000000000000000000000000000AA
:104E8800000000000000000000000000000000001A
:104E9800000000000000000000000000000000000A
:104EA80000000000000000000000000000000000FA
:104EB800845400080900000088550008A05500081F
:104EC80005010000B455000809000000C05500089D
:104ED800D855000806010000EC550008090000003C
:104EE800F8550008F855000800060000000000000A
:104EF80000000000000000000000000000000000AA
:104F08009054000809000000345500084455000872
:104F1800010000009C5400080700000048550008E4
:104F280058550008020000006855000805000000F8
:104F380070550008785500080300000000000000C4
:104F48000000000000000000000000000000000059
:104F5800A454000805000000F85400080055000893
:104F6800210000000855000808000000145500083A
:104F78002455000825000000000000000000000083
:104F8800000000000000000000000000AC54000811
:104F980009000000D0540008DC5400080500000097
:104FA800B854000809000000E4540008F054000850
:104FB80006000000000000000000000000000000E3
:104FC800000000000000000039323932373538342B
:104FD800353330363344383033444436303344354F
:104FE80045373737443738383845443144354246F1
:104FF8003335373836313930464132463233454217
:1050080043303834384145414444413932434136CC
:1050180043334438304233324334443130394245E3
:1050280030463336443641453731333042394345CB
:105038004437414344463534434643373535354193
:1050480043313445454241423933413839383133A7
:105058004642463343344638303636443244383094
:1050680030463743333841383141453331393432AA
:1050780039313734303346463439343642304138A2
:105088003344334433453035454535374336463563
:105098004635363036464235443442433643443347
:1050A8003445453038303141354539344242373757
:1050B800423037353037323333413042433742415B
:1050C8004338463930463739000000003130303037
:1050D80031000000323442463631383534363837FC
:1050E8003836464444333033303833443235453625
:1050F80034454643363643413437324243343444E8
:1051080032353331303246384234413944334246FD
:105118004137353039313338364330303737393322
:1051280037464533334641333235324432383835E1
:1051380035383337414531423438344138413941C3
:1051480034354637454538433043363334463939A4
:105158004538434444463739433543453037454558
:1051680037324337463132333134323139383136D8
:10517800343233344341424237323443463738427B
:105188003831373342394638383046433836333287
:10519800323430374146314645444644444532422C
:1051A800454236373443413135463345383141314C
:1051B8003532314530373135313341314538354273
:1051C8003544464130333146323145434145393122
:1051D80041333444000000004333364430454237FD
:1051E80046434432383532323343464235414142F0
:1051F80041354244413344383243303143414431EC
:1052080039454134383441383745413433373736F6
:105218003337453735353030464342323030354301
:1052280035433744443645433441433032334344AD
:1052380041323835443739364333443945373545B3
:1052480031454643343234383842423446314431A9
:1052580033414333304135370000000043303030AC
:10526800444635314137433737414538443743376A
:105278003337304331464635354236394532313198
:10528800433242394535444231454430424636314D
:10529800443044393839393632304634393130457A
:1052A800343136383338374533433330414131456B
:1052B8003030433333394137393530383834353283
:1052C80044443936413941354541354439444341EF
:1052D8003638444136333630333241460000000018
:1052E8004331414346353637353634323734464212
:1052F80030374130424241443544323645323938FC
:105308003343393444323232383841434437363300
:1053180046443845353630304544344137303244D8
:1053280046383431393841354630364332453732DC
:1053380032333641453439304339334630374638CD
:10534800334343353539434432374243324431439A
:1053580041343838383131373330424235373235D5
:105368000000000034393539434246364638464550
:105378004637353041454536393737433135353588
:105388003739433744384141454135363734394553
:105398004132383632333237324534463744303585
:1053A800393241463743314631333133434143394A
:1053B8003437314235433532334246453539324642
:1053C800353137423430374131424437364331364C
:1053D800344239334441324433324133383345352A
:1053E80038333537000000003941453746424339E4
:1053F8003935343634333244463731383936464312
:1054080032333945414441454633384431384432D2
:1054180042324630453244443237354141393737D4
:1054280045324246343431314635413342324135D2
:10543800443333363035414542424343424137468F
:105448004542394632443246413734323036434594
:105458004331363944373442463541384335304490
:105468003646343845413038000000005348413250
:105478003536000053484132323400002A864886C7
:10548800F70D01010E0000002A864886F70D01017C
:10549800010000002A8648CE3D0201002B0E0302BF
:1054A800070000006086480165030402040000004C
:1054B80060864801650304020100000025642E256A
:1054C800640000002E25640069642D73686132321F
:1054D800340000005348412D3232340069642D7382
:1054E80068613235360000005348412D32353600A8
:1054F80064657343424300004445532D43424300CF
:105508002A864886F70D0307000000006465732D9E
:10551800656465332D636263000000004445532DC4
:10552800454445332D4342430000000072736145F2
:105538006E6372797074696F6E0000005253410097
:1055480069642D65635075626C69634B6579000009
:1055580047656E65726963204543206B6579000075
:105568002B8104010C00000069642D656344480028
:105578004543206B657920666F7220454344480097
:1055880073686132323457697468525341456E63A7
:1055980072797074696F6E0052534120776974682C
:1055A800205348412D323234000000002A864886B4
:1055B800F70D01010B000000736861323536576939
:1055C8007468525341456E6372797074696F6E00E6
:1055D8005253412077697468205348412D3235363B
:1055E800000000002A864886F70D01010A00000025
:1055F8005253415353412D50535300004300000070
:085608008CACFF7F01000000E3
:045610002D0200085F
:045614000502000883
:10561800040000200000000000000000000000005E
:105628000000000000000000000000000000000072
:105638000000000004560008000000000000000000
:105648000000000000000000000000000000000052
:105658000000000000000000000000000000000042
:105668000000000000000000000000000000000032
:04567800000000002E
:0400000508004C752E
:00000001FF
