:020000040800F2
:100000000030002039170008811700088117000808
:100010008117000881170008811700080000000000
:100020000000000000000000000000008117000830
:1000300081170008000000008117000881170008E0
:1000400000000000000000000000000000000000B0
:1000500000000000000000000000000000000000A0
:100060000000000000000000000000000000000090
:100070000000000000000000000000000000000080
:100080000000000000000000000000000000000070
:100090000000000000000000000000000000000060
:1000A0000000000000000000000000000000000050
:1000B0000000000000000000000000000000000040
:1000C0000000000000000000000000000000000030
:1000D0000000000000000000000000000000000020
:1000E0000000000000000000000000000000000010
:1000F0000000000000000000000000000000000000
:1001000000000000000000000000000000000000EF
:1001100000000000000000000000000000000000DF
:1001200000000000000000000000000000000000CF
:1001300000000000000000000000000000000000BF
:1001400000000000000000000000000000000000AF
:10015000000000000000000000000000000000009F
:10016000000000000000000000000000000000008F
:10017000000000000000000000000000000000007F
:08018000000000000000000077
:10018800044B05481B1A062B02D9044B03B1184728
:10019800704700BF670000206400002000000000D6
:1001A80005490648091A891001EBD171491002D096
:1001B800034B03B118477047640000206400002017
:1001C8000000000010B5064C237843B9FFF7D8FFAC
:1001D800044B13B10448AFF300800123237010BD12
:1001E80064000020000000008417000808B5084BD0
:1001F8001BB108490848AFF300800848036813B9E1
:10020800BDE80840CCE7064B002BF9D09847F7E744
:100218000000000068000020841700086400002027
:1002280000000000014B1868704700BF0000002064
:1002380070B50F4E0F4D761BB61018BF002405D0B1
:10024800013455F8043B9847A642F9D10A4E0B4DA4
:10025800761B01F093FAB61018BF002406D00134BB
:1002680055F8043B9847A642F9D170BD70BD00BF50
:10027800BC170008BC170008C0170008BC17000806
:10028800F8B5144B1C68A36B05461BB100221D6111
:100298005A61F8BD182000F065F801220023A06318
:1002A800C0E9042343F20E3303800B238381052224
:1002B800034642814AF6CD3741F234264EF26D6448
:1002C8004DF6EC61002247808680C48001811D6163
:1002D8005A61F8BD00000020F8B51F4B1C68A16BDF
:1002E80091B10B691D4C48691D4A04FB03F402FBDC
:1002F8000040A3FB02230132034443F1000323F02F
:100308000040C1E90423F8BD182000F02BF810A321
:10031800D3E900230146A0630126002743F20E35E6
:100328004AF6CD34C0E9046741F234204EF26D67D5
:100338004DF6EC660D804C8005250B248880CF8017
:1003480006480E814D818C81C1E90423F8BD00BFA8
:100358002E7F954C2DF45158000000202DF4515853
:100368002D7F954C024B0146186800F051B800BF2C
:1003780000000020024B0146186800F003B800BFD7
:100388000000002030B481B151F8043C0439002B3E
:10039800B8BFC9181D4B1A682AB18A420AD9086819
:1003A8000C18A24225D04A60196030BC70478B42B5
:1003B80003D81A465368002BF9D1146815198D42D1
:1003C8000CD007D808680C189C4218D04B6030BC79
:1003D800516070470C23036030BC704709680C44B7
:1003E800111999421460E0D10ACB0C44536014608F
:1003F800DBE7146852684A6020440860D4E71C6848
:100408005B684B60204408605160CEE7080100201B
:1004180070B5CD1C25F0030508350C2D38BF0C250B
:10042800002D06463BDBA94239D827490A6852B154
:1004380013685B1B04D436E023685B1B1AD522467D
:100448005468002CF8D149681F4C002936D0294639
:10045800304600F03BF8431C21D0C41C24F00304B0
:10046800A04205D0211A304600F030F8013016D0ED
:10047800256004E00B2B0DD923601C44256004F192
:100488000B0020F00700231DC31A02D05A42E25085
:1004980070BD70BD94420ED063685360EFE70C23C3
:1004A8003360002070BD0B2B03D8536814460B60D3
:1004B800E5E71446E0E713461446F8E7304600F04F
:1004C80005F86060C3E700BF0801002038B5074C95
:1004D800002305460846236001F010F9431C00D0AC
:1004E80038BD2368002BFBD02B6038BD800100206D
:1004F80013B50024019400F097FAADF80040BDF858
:1005080000309BB2312B17D8ADF80240BDF802304D
:100518009BB2312B09D8019B01330193BDF80230FE
:1005280001339BB2ADF80230F0E7BDF8003001337B
:100538009BB2ADF80030E2E700F07DFA01AA042191
:10054800722000F06BF9019840F6C413C01A18BF66
:10055800012002B010BD13B5044605238DF80730FD
:1005680000F062FA2378A22B0CBF012300238DF838
:10057800073000F060FA0DF107020121722000F047
:100588004DF99DF8070002B010BD00002DE9F043B9
:100598001C4B85B002AD064618689B88AB800123CA
:1005A80002908DF8073000F03FFA00244FF005095B
:1005B80042F210780027FFF78FFE90FBF9F303EB68
:1005C8008303C01A00FB0880874201DA0137F2E78B
:1005D8002B5D325D9A4218BF002304F1010418BF55
:1005E8008DF80730052CE5D100F025FA0DF107024A
:1005F8000121722000F012F99DF8070005B0BDE84E
:10060800F08300BFB017000807B5012000F048FAD2
:10061800002000F039FA00238DF8073000F004FAC2
:1006280000F009FA9DF80730022BFBD1012000F0F9
:100638002BFA012000F028FA012000F025FA012009
:1006480000F022FA012000F01FFA012000F01CFA45
:10065800012000F019FA012000F016FA012000F03C
:1006680013FA722000F000FA422000F0FDF952203F
:1006780000F0FAF9452000F0F7F9412000F0F4F90C
:100688004B2000F0F1F94F2000F0EEF9552000F072
:10069800EBF9542000F0E8F90A2000F0E5F9012010
:1006A80000F0F2F9012000F0EFF9012000F0ECF978
:1006B800012000F0E9F9012000F0E6F9012000F03E
:1006C800E3F9012000F0E0F9012000F0DDF9002055
:1006D80003B05DF804FB000008B500F005F900F070
:1006E80043F900F07DF9722000F0BEF9522000F0C5
:1006F800BBF9452000F0B8F9532000F0B5F94520C2
:1007080000F0B2F9542000F0AFF9202000F0ACF965
:10071800202000F0A9F9202000F0A6F90A2000F016
:10072800A3F900F073F80B4A0021672000F058F88D
:10073800094A0121632000F053F8084A0521702076
:1007480000F04EF8064A0021692000F049F800F050
:1007580087F8FCE7F90400085F050008950500081C
:10076800110600080120704770B5013113469C1A24
:10077800A04232DD0D7811F8014CA5F13006F6B231
:10078800092E01D81E700DE0A5F14106052E01D8ED
:10079800373D06E0A5F16106052E01D9012070BD9F
:1007A800573D1D70A4F13005EEB2092E03D81C7810
:1007B80044EA05140DE0A4F14105052D01D8373CA4
:1007C80004E0A4F16105052DE8D8573C1D7845EAF9
:1007D80004141C7002310133C9E7002070BD000009
:1007E80030B5094D2B68092B0BDC3F2909D80C249F
:1007F80004FB035401332071A160E2602B600020E8
:1008080030BD012030BD00BF80000020024A002119
:100818007620FFF7E5BF00BF6D0700082DE9F0411E
:1008280015460F4600F020F90C4E2C46631B9F42DC
:100838000EDDA04614F8013B1B09F05C00F014F92A
:1008480098F8003003F00F03F05C00F00DF9EDE7C5
:100858000A20BDE8F04100F007B900BF9C17000866
:10086800F0B5204DB3B000F0EDF82B6800242A1D38
:100878000C219C420BDA01FB04F6B65C864204D1DB
:100888000C27002607FB04570CE00134F1E726D0BB
:10089800F6E700F0D7F80A2821D00D281FD012ABB0
:1008A800F0540136BB68B6EB430FF2D300F0CAF838
:1008B8000A2801D00D2812D10C2303FB045402AAE4
:1008C80012A9A068FFF750FF48B9E36802A8984743
:1008D80032AA012102F8C40D7A20FFF79FFF33B036
:1008E800F0BD00BF8000002070B596B0002403263C
:1008F8004FF4A0230CA801250D93109414940C9682
:1009080000F0E2F80F23214602A80293049405940C
:100918000694039500F04AFB114B5A6942F40022F1
:100928005A615B69099403F400230E4C0193019BFF
:1009380008954FF4C04307A9204607930A9600F08C
:10094800D9FB2A4620464FF4005100F09DFC2A4668
:100958004FF48041204600F097FC16B070BD00BFF0
:10096800001002400008004810B588B04FF4C0637A
:10097800039302230493012305930323154C069341
:1009880007230793636943F400336361636903F4DE
:100998000033019303A94FF09040019B00F0AAFB9C
:1009A8000D480E4B4FF4164E80E808400023836034
:1009B800C360036183610C234361A36943F48043EB
:1009C800A361A36903F480430293029B00F0A8FD8E
:1009D80008B010BD0010024010010020003801408E
:1009E800104B30B55A6942F400325A615B6987B0DE
:1009F80003F400330093009B01234FF480540293C7
:100A08000025032301A94FF0904004930194039516
:100A180000F070FB2A4621464FF0904000F034FC6D
:100A280007B030BD0010024001224FF480514FF052
:100A3800904000F029BC00224FF480514FF09040C4
:100A480000F022BC07B541F2883301220DF10701FD
:100A5800044800F0E8FD0028F5D19DF8070003B030
:100A68005DF804FB1001002007B502A941F28833A4
:100A780001F8010D0122034800F07DFD03B05DF887
:100A880004FB00BF1001002008B1002200E0012291
:100A98004FF40051014800F0F7BB00BF00080048C0
:100AA80008B1002200E001224FF48041014800F023
:100AB800EBBB00BF00080048024B1868421C1A60D4
:100AC800704700BFFC00002003682DE9F743D907F1
:100AD800044603D423689A0774D4F4E0B6494B68F3
:100AE80003F00C03042B07D04B6803F00C03082B0E
:100AF80017D14B68DB0314D54FF4003393FAA3F2F4
:100B0800096893FAA3F3B3FA83F303F01F030122EE
:100B180002FA03F30B42DDD06368002BDAD101201F
:100B28003EE26368B3F5803F07D00A684BB1B3F57E
:100B3800A02F06D142F480220A600A6842F480326B
:100B480005E022F480320A600A6822F480220A60F2
:100B5800CA6A22F00F00A2680243CA62CBB1FFF74B
:100B6800ABFF4FF400350746012695FAA5F30A684E
:100B780095FAA5F3B3FA83F303F01F0306FA03F318
:100B88001342A7D1FFF798FFC01B6428EDD90320B3
:100B980006E2FFF791FF4FF400350746012695FA64
:100BA800A5F30A6895FAA5F3B3FA83F303F01F03D4
:100BB80006FA03F313428DD0FFF77EFFC01B6428AB
:100BC800EDD9E4E77C494B6813F00C0F07D04B686C
:100BD80003F00C03082B22D14B68DF031FD4022338
:100BE80093FAA3F2086893FAA3F3B3FA83F303F032
:100BF8001F03012202FA03F3034202D0236993423E
:100C08008DD10B68F82292FAA2F26069B2FA82F2E8
:100C180000FA02F223F0F80313430B6053E0226951
:100C280001257AB395FAA5F3B3FA83F303F1845354
:100C380003F584139B0002261D60FFF73DFF07465E
:100C480096FAA6F35C480A6896FAA6F3B3FA83F311
:100C580003F01F0305FA03F3134205D1FFF72CFF36
:100C6800C01B0228ECD992E70368F82292FAA2F294
:100C78006169B2FA82F201FA02F223F0F80313432F
:100C8800036020E095FAA5F3B3FA83F303F18453E4
:100C980003F584139B0002261A60FFF70DFF074631
:100CA80096FAA6F30A6896FAA6F3B3FA83F303F062
:100CB8001F0305FA03F3134205D0FFF7FDFEC01B1F
:100CC8000228EDD963E723681E0703D423685D076C
:100CD8004AD4DEE0A069384D012110B391FAA1F29F
:100CE800364BB2FA82F213449B0002261960FFF7D2
:100CF800E3FE074696FAA6F396FAA6F396FAA6F343
:100D08006A6A96FAA6F3B3FA83F303F01F0301FAAB
:100D180003F31342DAD1FFF7CFFEC01B0228E9D94B
:100D280035E791FAA1F2254BB2FA82F213449B00FF
:100D380002261860FFF7C0FE074696FAA6F396FA51
:100D4800A6F396FAA6F36A6A96FAA6F3B3FA83F3B9
:100D580003F01F0301FA03F31342B7D0FFF7ACFE09
:100D6800C01B0228E9D912E71349CB69D8000AD475
:100D7800CB6943F08053CB61CB6903F08053019377
:100D8800019B012500E000250D4E3368DA0503D5E7
:100D9800E368012B16D12BE0336843F4807333608A
:100DA800FFF78AFE07463368DB05F1D4FFF784FEB8
:100DB800C01B6428F7D9EAE6001002402081901091
:100DC8000070004073B90B6A23F001030B620B6AD1
:100DD80023F004030B62FFF76FFE02268146B0463C
:100DE80001273CE0052B0B6A06D143F004030B6294
:100DF8000B6A43F0010305E023F001030B620B6A61
:100E080023F004030B62FFF757FE02268146B04623
:100E1800012796FAA6F396FAA6F30BB10A6A02E03E
:100E280096FAA6F34A6A98FAA8F3B3FA83F303F09A
:100E38001F0307FA03F3134221D1FFF73DFE41F2E6
:100E48008833C9EB00009842E3D9A0E6FFF734FEE7
:100E580041F28833C9EB000098423FF698AE96FA03
:100E6800A6F396FAA6F383B10A6A98FAA8F3B3FA36
:100E780083F303F01F0307FA03F31342E6D145B1E6
:100E8800CB6923F08053CB6103E096FAA6F34A6A54
:100E9800EBE7E2690AB9002082E043494B6803F0B6
:100EA8000C03082B3FF43BAE022A4FF0807353D15A
:100EB80093FAA3F3B3FA83F303F1845303F584138A
:100EC8009B0000221A60FFF7F7FD4FF0007680467E
:100ED800012796FAA6F334480A6896FAA6F3B3FAF5
:100EE80083F303F01F0307FA03F313424FF00105DE
:100EF80006D0FFF7E1FDC8EB00000228E9D946E675
:100F08004368666A226A23F47413324313434360C6
:100F18004FF0807393FAA3F3B3FA83F303F1845386
:100F280003F584139B004FF000741D60FFF7C4FDA8
:100F3800064694FAA4F30A6894FAA4F3B3FA83F37E
:100F480003F01F0305FA03F31342A4D1FFF7B4FD1E
:100F5800801B0228EDD91AE693FAA3F3B3FA83F3B8
:100F680003F1845303F584139B0000221A60FFF7F2
:100F7800A3FD4FF000740646012594FAA4F30A680D
:100F880094FAA4F3B3FA83F303F01F0305FA03F307
:100F9800134280D0FFF790FD801B0228EDD9F6E5BB
:100FA80003B0BDE8F08300BF001002404F4AF8B517
:100FB800136803F007038B4205460AD328688407A1
:100FC80013D54B4C636823F0F002AB68134363609E
:100FD8000BE0136823F007030B431360136803F057
:100FE80007039942EAD00120F8BDC20706D43F4A58
:100FF800136803F00703994256D35FE06A683C4CD4
:10100800012A0ED14FF4003393FAA3F0206893FA23
:10101800A3F3B3FA83F303F01F0302FA03F30342C3
:1010280011E0022A0CBF4FF00073022393FAA3F0D9
:10103800266893FAA3F3B3FA83F303F01F0301209E
:1010480000FA03F33342CED0636823F003031A4354
:101058006260FFF731FD6B68012B064641F2883765
:101068000BD1636803F00C03042BC0D0FFF724FDF9
:10107800801BB842F5D90320F8BD022B0FD1636855
:1010880003F00C03082BB2D0FFF716FD801BB84203
:10109800F5D9F0E7FFF710FD801BB842EBD863687D
:1010A80013F00C0FF6D1A2E7136823F007030B43E4
:1010B8001360136803F00703994294D12868430723
:1010C80006D50B494B6823F4E062EB6813434B6089
:1010D80010F0080008D0064A2969536823F46053C1
:1010E80043EAC10353600020F8BD00BF002002405E
:1010F800001002402DE9F04FDFF884910B68DFF80B
:10110800848185B04C4601930023019ADA4000F0AF
:10111800B180012202FA03FA019A12EA0A0600F0E3
:10112800A7804A6822F0100EBEF1020F14D14FEAD0
:10113800D30C00EB8C0C03F0070BDCF820704FEAA3
:101148008B0B0F2505FA0BF527EA05050F6907FA3A
:101158000BF72F43CCF820704FEA430B03270568A1
:1011680007FA0BFC6FEA0C0C174005EA0C0507FAA6
:101178000BF70EF1FF3E3D43BEF1010F056010D89D
:101188008568CF680CEA050507FA0BF72F438760D7
:10119800456825EA0A0AC2F300159D4045EA0A0592
:1011A8004560C5680CEA050C8D6805FA0BF545EA3B
:1011B8000C05C560D5005BD5D8F8185045F0010579
:1011C800C8F81850D8F8185023F0030E0EF1804EC6
:1011D80005F001050EF5803E039503F0030C039D11
:1011E800DEF808504FEA8C0C0F2707FA0CF7B0F11D
:1011F800904F25EA070511D0204FB84210D007F5C7
:101208008067B8420ED007F58067B8420CD007F562
:101218008067B84214BF0527042706E0002704E0CA
:10122800012702E0022700E0032707FA0CFC4CEA3A
:101238000505CEF80850D9F80050F74312F4803F5E
:101248000CBF3D4035432560656812F4003F0CBF74
:101258003D4035436560A56812F4801F0CBF3D40D2
:101268003543A560E568920254BF3D403543E560CB
:1012780001334AE705B0BDE8F08F00BF000400481D
:1012880000040140001002400AB181617047816288
:101298007047000030B5026985680168C3690C6849
:1012A800154342692A4342EA030524F4164222F010
:1012B8000C022A430A604A68856922F44054C268CD
:1012C80022434A608A68046A22F430622C4322432B
:1012D8008A605D4A91420AD102F558425B4C126B12
:1012E80002F00302B3F5004FA25C4BD07FE0584AEE
:1012F80091420ED102F5E632126B02F44032B2F599
:10130800803F54D035D9B2F5003F58D0B2F5403FB0
:1013180036E0504A91420ED102F5E432126B02F4E3
:101328004022B2F5802F42D023D9B2F5002F46D003
:10133800B2F5402F24E0484A91420ED102F5E2323C
:10134800126B02F44012B2F5801F30D011D9B2F5F9
:10135800001F34D0B2F5401F12E0404A91423AD102
:1013680002F5E032126B02F44002B2F5800F1ED093
:1013780001D8E2B12FE0B2F5000F20D0B2F5400F4E
:1013880009D028E0082A29D8DFE802F01414082830
:10139800142828281C00B3F5004F3BD140684208A8
:1013A80002F1F47303F59043B3FBF0F310E0B3F5E7
:1013B800004F38D14268530803F5610306E0B3F5DE
:1013C800004F35D14268530803F58033B3FBF2F37D
:1013D8009BB2002004E0B3F5004F33D10120002375
:1013E80023F00F02C3F342031343CB6030BD082A36
:1013F80028D8DFE802F018050F27182727271D002F
:101408004268530803F5E103B3FBF2F30E4A9BB2BB
:10141800D36015E04068420802F5740303F51053E1
:10142800B3FBF0F30AE04268530803F5E10303E075
:101438004268530803F50043B3FBF2F39BB2CB6059
:10144800002030BD012030BD00380140AC17000835
:101458000044004000480040004C0040005000405C
:10146800F8B5069D044616461F462068C26931EA4B
:1014780002030CBF01220022B2421BD16B1CF5D023
:1014880095B923681A6822F4D0721A609A6822F013
:1014980001029A60202384F8693084F86A300023B6
:1014A80084F868300320F8BDFFF706FBC01B8542AF
:1014B800DBD2E6E70020F8BD37B504460021C16657
:1014C800FFF7FAFA23681B681A07054604D423684D
:1014D8001B685B071AD50DE06FF07E4300930A4640
:1014E80003464FF400112046FFF7BAFF0028EED05C
:1014F800032013E06FF07E43009300222B464FF445
:1015080080012046FFF7ACFF0028F1D120230020FE
:1015180084F8693084F8680084F86A3003B030BD14
:1015280010B5044628B390F8693003F0FF020BB9F0
:1015380080F868202268242384F86930136823F02F
:10154800010313602046FFF7A5FE012811D0236888
:101558005A6822F490425A609A6822F02A029A60E5
:101568001A6842F0010220461A60BDE81040FFF7F1
:10157800A3BF012010BDF7B51F4690F86930202B96
:101588000D46044611464BD1002D47D0002A45D0C0
:1015980090F86830012B43D0012380F8683000238D
:1015A800C366212380F86930FFF786FA0646A4F857
:1015B8005010A4F85210B4F8522092B202B3B4F802
:1015C80052300097013B9BB2A4F8523000223346B8
:1015D80080212046FFF744FF08B1032021E0A368DB
:1015E8002268B3F5805F07D123692BB935F8023B30
:1015F800C3F308031385DEE72B7813850135DAE793
:101608000097334640212046FFF72AFF0028E4D1FF
:10161800202384F8693084F8680002E0012000E0A3
:10162800022003B0F0BD2DE9F341984690F86A30E6
:10163800202B0D46044611465AD1002D56D0002ABB
:1016480054D090F86830012B52D0012380F86830CC
:1016580003684FF0FF321A620023C366222380F822
:101668006A30FFF729FAA368A4F85810B3F5805F29
:101678000746A4F85A1006D1236913B940F2FF139C
:1016880006E0FF2304E02BB92369002BF9D07F2360
:10169800A4F85C30B4F85C60B4F85A0080B2F8B1D1
:1016A800B4F85A30CDF80080013B9BB2A4F85A3008
:1016B80000223B4620212046FFF7D2FED0B9A3687E
:1016C800B3F5805F236806D1226922B99B8C334029
:1016D80025F8023BE0E79B8C33402B700135DBE7B4
:1016E800202384F86A3084F8680004E0012002E0CE
:1016F800022000E0032002B0BDE8F08108B50A4BE3
:101708001A680AB9094A1A601B686A46184490425E
:1017180006D9FEF787FD0C2303604FF0FF3008BDA4
:10172800014A1060184608BD040100208801002005
:10173800002103E00B4B5B58435004310A480B4B24
:1017480042189A42F6D30A4A02E000231360043290
:10175800084B9A42F9D3AFF30080FEF769FDFEF714
:10176800BBFFFEE7C417000800000020640000204B
:101778006400002084010020FEE70000F8B500BFE7
:10178800F8BC08BC9E467047F8B500BFF8BC08BC5A
:041798009E467047B2
:10179C00303132333435363738394142434445469B
:1017AC0001040802746F75636800000043000000B8
:0417BC00F50100082B
:0417C000CD0100084F
:1017C40004000020000000000000000000000000F1
:1017D4000000000000000000000000000000000005
:1017E40000000000B817000800000000000000001E
:1017F40000000000000000000000000000000000E5
:1018040000000000000000000000000000000000D4
:1018140000000000000000000000000000000000C4
:0418240000000000C0
:04000005080017399F
:00000001FF
