:020000040800F2
:10000000003000202915000871150008711500083E
:100010007115000871150008711500080000000036
:100020000000000000000000000000007115000842
:100030007115000800000000711500087115000816
:1000400000000000000000000000000000000000B0
:1000500000000000000000000000000000000000A0
:100060000000000000000000000000000000000090
:100070000000000000000000000000000000000080
:100080000000000000000000000000000000000070
:100090000000000000000000000000000000000060
:1000A0000000000000000000000000000000000050
:1000B0000000000000000000000000000000000040
:1000C0000000000000000000000000000000000030
:1000D0000000000000000000000000000000000020
:1000E0000000000000000000000000000000000010
:1000F0000000000000000000000000000000000000
:1001000000000000000000000000000000000000EF
:1001100000000000000000000000000000000000DF
:1001200000000000000000000000000000000000CF
:1001300000000000000000000000000000000000BF
:1001400000000000000000000000000000000000AF
:10015000000000000000000000000000000000009F
:10016000000000000000000000000000000000008F
:10017000000000000000000000000000000000007F
:08018000000000000000000077
:10018800044B05481B1A062B02D9044B03B1184728
:10019800704700BF0F0200200C0200200000000082
:1001A80005490648091A891001EBD171491002D096
:1001B800034B03B1184770470C0200200C020020C3
:1001C8000000000010B5064C237843B9FFF7D8FFAC
:1001D800044B13B10448AFF300800123237010BD12
:1001E8000C020020000000007415000808B5084B38
:1001F8001BB108490848AFF300800848036813B9E1
:10020800BDE80840CCE7064B002BF9D09847F7E744
:100218000000000010020020741500080C020020E5
:100228000000000070B50F4E0F4D761BB61018BFBA
:10023800002405D0013455F8043B9847A642F9D16B
:100248000A4E0B4D761B01F091F9B61018BF002429
:1002580006D0013455F8043B9847A642F9D170BD41
:1002680070BD00BFB0150008B0150008B41500082F
:10027800B01500080020704708B501F050F90020BB
:1002880008BD08B501F045F9002008BD10B50446C1
:1002980001F043F900F0C0F9204601F03CF900F004
:1002A800C2F9204601F03AF922461021722000F0E6
:1002B800ADF8002010BD00007FB5214B6A4603F160
:1002C80010066D4618685968144603C40833B342CB
:1002D8002246F7D100F000F900F03EF900F078F975
:1002E80001F016F9284601F014F9682000F0B4F975
:1002F800652000F0B1F96C2000F0AEF96C2000F038
:10030800ABF96F2000F0A8F90A2000F0A5F900F079
:1003180075F80C4A10216B2000F05AF80A4A10218F
:10032800702000F055F8094A0021782000F050F8B4
:10033800074A12216D2000F04BF800F089F8FCE71D
:100348008C1500088B020008950200087D02000841
:10035800810200080120704770B5013113469C1ACC
:10036800A04232DD0D7811F8014CA5F13006F6B245
:10037800092E01D81E700DE0A5F14106052E01D801
:10038800373D06E0A5F16106052E01D9012070BDB3
:10039800573D1D70A4F13005EEB2092E03D81C7824
:1003A80044EA05140DE0A4F14105052D01D8373CB8
:1003B80004E0A4F16105052DE8D8573C1D7845EA0D
:1003C80004141C7002310133C9E7002070BD00001D
:1003D80030B5094D2B68092B0BDC3F2909D80C24B3
:1003E80004FB035401332071A160E2602B600020FC
:1003F80030BD012030BD00BF28020020024A002184
:100408007620FFF7E5BF00BF5D0300082DE9F04146
:1004180015460F4600F020F90C4E2C46631B9F42F0
:100428000EDDA04614F8013B1B09F05C00F014F93E
:1004380098F8003003F00F03F05C00F00DF9EDE7D9
:100448000A20BDE8F04100F007B900BF9C1500087C
:10045800F0B5204DB3B000F0EDF82B6800242A1D4C
:100468000C219C420BDA01FB04F6B65C864204D1EF
:100478000C27002607FB04570CE00134F1E726D0CF
:10048800F6E700F0D7F80A2821D00D281FD012ABC4
:10049800F0540136BB68B6EB430FF2D300F0CAF84C
:1004A8000A2801D00D2812D10C2303FB045402AAF8
:1004B80012A9A068FFF750FF48B9E36802A8984757
:1004C80032AA012102F8C40D7A20FFF79FFF33B04A
:1004D800F0BD00BF2802002070B596B000240326A6
:1004E8004FF4A0230CA801250D93109414940C9696
:1004F80000F0CAF80F23214602A802930494059439
:100508000694039500F032FB114B5A6942F400221D
:100518005A615B69099403F400230E4C0193019B13
:1005280008954FF4C04307A9204607930A9600F0A0
:10053800C1FB2A4620464FF4005100F085FC2A46AC
:100548004FF48041204600F07FFC16B070BD00BF1C
:10055800001002400008004810B588B04FF4C0638E
:10056800039302230493012305930323154C069355
:1005780007230793636943F400336361636903F4F2
:100588000033019303A94FF09040019B00F092FBC8
:100598000D480E4B4FF4164E80E808400023836048
:1005A800C360036183610C234361A36943F48043FF
:1005B800A361A36903F480430293029B00F090FDBA
:1005C80008B010BD0010024074030020003801403C
:1005D800104B30B55A6942F400325A615B6987B0F2
:1005E80003F400330093009B01234FF480540293DB
:1005F8000025032301A94FF090400493019403952B
:1006080000F058FB2A4621464FF0904000F01CFCB1
:1006180007B030BD0010024001224FF480514FF066
:10062800904000F011BC00224FF480514FF09040F0
:1006380000F00ABC07B541F2883301220DF1070129
:10064800044800F0D0FD0028F5D19DF8070003B05C
:100658005DF804FB7403002007B502A941F2883352
:1006680001F8010D0122034800F065FD03B05DF8B3
:1006780004FB00BF74030020024B1868421C1A6078
:10068800704700BFA402002003682DE9F743D9078B
:10069800044603D423689A0774D4F4E0B6494B6837
:1006A80003F00C03042B07D04B6803F00C03082B52
:1006B80017D14B68DB0314D54FF4003393FAA3F238
:1006C800096893FAA3F3B3FA83F303F01F03012233
:1006D80002FA03F30B42DDD06368002BDAD1012064
:1006E8003EE26368B3F5803F07D00A684BB1B3F5C3
:1006F800A02F06D142F480220A600A6842F48032B0
:1007080005E022F480320A600A6822F480220A6036
:10071800CA6A22F00F00A2680243CA62CBB1FFF78F
:10072800ABFF4FF400350746012695FAA5F30A6892
:1007380095FAA5F3B3FA83F303F01F0306FA03F35C
:100748001342A7D1FFF798FFC01B6428EDD90320F7
:1007580006E2FFF791FF4FF400350746012695FAA8
:10076800A5F30A6895FAA5F3B3FA83F303F01F0318
:1007780006FA03F313428DD0FFF77EFFC01B6428EF
:10078800EDD9E4E77C494B6813F00C0F07D04B68B0
:1007980003F00C03082B22D14B68DF031FD402237C
:1007A80093FAA3F2086893FAA3F3B3FA83F303F076
:1007B8001F03012202FA03F3034202D02369934282
:1007C8008DD10B68F82292FAA2F26069B2FA82F22D
:1007D80000FA02F223F0F80313430B6053E0226996
:1007E80001257AB395FAA5F3B3FA83F303F1845399
:1007F80003F584139B0002261D60FFF73DFF0746A3
:1008080096FAA6F35C480A6896FAA6F3B3FA83F355
:1008180003F01F0305FA03F3134205D1FFF72CFF7A
:10082800C01B0228ECD992E70368F82292FAA2F2D8
:100838006169B2FA82F201FA02F223F0F803134373
:10084800036020E095FAA5F3B3FA83F303F1845328
:1008580003F584139B0002261A60FFF70DFF074675
:1008680096FAA6F30A6896FAA6F3B3FA83F303F0A6
:100878001F0305FA03F3134205D0FFF7FDFEC01B63
:100888000228EDD963E723681E0703D423685D07B0
:100898004AD4DEE0A069384D012110B391FAA1F2E3
:1008A800364BB2FA82F213449B0002261960FFF716
:1008B800E3FE074696FAA6F396FAA6F396FAA6F387
:1008C8006A6A96FAA6F3B3FA83F303F01F0301FAF0
:1008D80003F31342DAD1FFF7CFFEC01B0228E9D990
:1008E80035E791FAA1F2254BB2FA82F213449B0044
:1008F80002261860FFF7C0FE074696FAA6F396FA96
:10090800A6F396FAA6F36A6A96FAA6F3B3FA83F3FD
:1009180003F01F0301FA03F31342B7D0FFF7ACFE4D
:10092800C01B0228E9D912E71349CB69D8000AD4B9
:10093800CB6943F08053CB61CB6903F080530193BB
:10094800019B012500E000250D4E3368DA0503D52B
:10095800E368012B16D12BE0336843F480733360CE
:10096800FFF78AFE07463368DB05F1D4FFF784FEFC
:10097800C01B6428F7D9EAE60010024020819010D5
:100988000070004073B90B6A23F001030B620B6A15
:1009980023F004030B62FFF76FFE02268146B04680
:1009A80001273CE0052B0B6A06D143F004030B62D8
:1009B8000B6A43F0010305E023F001030B620B6AA5
:1009C80023F004030B62FFF757FE02268146B04668
:1009D800012796FAA6F396FAA6F30BB10A6A02E083
:1009E80096FAA6F34A6A98FAA8F3B3FA83F303F0DF
:1009F8001F0307FA03F3134221D1FFF73DFE41F22B
:100A08008833C9EB00009842E3D9A0E6FFF734FE2B
:100A180041F28833C9EB000098423FF698AE96FA47
:100A2800A6F396FAA6F383B10A6A98FAA8F3B3FA7A
:100A380083F303F01F0307FA03F31342E6D145B12A
:100A4800CB6923F08053CB6103E096FAA6F34A6A98
:100A5800EBE7E2690AB9002082E043494B6803F0FA
:100A68000C03082B3FF43BAE022A4FF0807353D19E
:100A780093FAA3F3B3FA83F303F1845303F58413CE
:100A88009B0000221A60FFF7F7FD4FF000768046C2
:100A9800012796FAA6F334480A6896FAA6F3B3FA39
:100AA80083F303F01F0307FA03F313424FF0010522
:100AB80006D0FFF7E1FDC8EB00000228E9D946E6B9
:100AC8004368666A226A23F474133243134343600B
:100AD8004FF0807393FAA3F3B3FA83F303F18453CB
:100AE80003F584139B004FF000741D60FFF7C4FDED
:100AF800064694FAA4F30A6894FAA4F3B3FA83F3C3
:100B080003F01F0305FA03F31342A4D1FFF7B4FD62
:100B1800801B0228EDD91AE693FAA3F3B3FA83F3FC
:100B280003F1845303F584139B0000221A60FFF736
:100B3800A3FD4FF000740646012594FAA4F30A6851
:100B480094FAA4F3B3FA83F303F01F0305FA03F34B
:100B5800134280D0FFF790FD801B0228EDD9F6E5FF
:100B680003B0BDE8F08300BF001002404F4AF8B55B
:100B7800136803F007038B4205460AD328688407E5
:100B880013D54B4C636823F0F002AB6813436360E2
:100B98000BE0136823F007030B431360136803F09B
:100BA80007039942EAD00120F8BDC20706D43F4A9C
:100BB800136803F00703994256D35FE06A683C4C18
:100BC800012A0ED14FF4003393FAA3F0206893FA68
:100BD800A3F3B3FA83F303F01F0302FA03F3034208
:100BE80011E0022A0CBF4FF00073022393FAA3F01E
:100BF800266893FAA3F3B3FA83F303F01F030120E3
:100C080000FA03F33342CED0636823F003031A4398
:100C18006260FFF731FD6B68012B064641F28837A9
:100C28000BD1636803F00C03042BC0D0FFF724FD3D
:100C3800801BB842F5D90320F8BD022B0FD1636899
:100C480003F00C03082BB2D0FFF716FD801BB84247
:100C5800F5D9F0E7FFF710FD801BB842EBD86368C1
:100C680013F00C0FF6D1A2E7136823F007030B4328
:100C78001360136803F00703994294D12868430767
:100C880006D50B494B6823F4E062EB6813434B60CD
:100C980010F0080008D0064A2969536823F4605305
:100CA80043EAC10353600020F8BD00BF00200240A2
:100CB800001002402DE9F04FDFF884910B68DFF84F
:100CC800848185B04C4601930023019ADA4000F0F4
:100CD800B180012202FA03FA019A12EA0A0600F028
:100CE800A7804A6822F0100EBEF1020F14D14FEA15
:100CF800D30C00EB8C0C03F0070BDCF820704FEAE8
:100D08008B0B0F2505FA0BF527EA05050F6907FA7E
:100D18000BF72F43CCF820704FEA430B03270568E5
:100D280007FA0BFC6FEA0C0C174005EA0C0507FAEA
:100D38000BF70EF1FF3E3D43BEF1010F056010D8E1
:100D48008568CF680CEA050507FA0BF72F4387601B
:100D5800456825EA0A0AC2F300159D4045EA0A05D6
:100D68004560C5680CEA050C8D6805FA0BF545EA7F
:100D78000C05C560D5005BD5D8F8185045F00105BD
:100D8800C8F81850D8F8185023F0030E0EF1804E0A
:100D980005F001050EF5803E039503F0030C039D55
:100DA800DEF808504FEA8C0C0F2707FA0CF7B0F161
:100DB800904F25EA070511D0204FB84210D007F50B
:100DC8008067B8420ED007F58067B8420CD007F5A7
:100DD8008067B84214BF0527042706E0002704E00F
:100DE800012702E0022700E0032707FA0CFC4CEA7F
:100DF8000505CEF80850D9F80050F74312F4803FA3
:100E08000CBF3D4035432560656812F4003F0CBFB8
:100E18003D4035436560A56812F4801F0CBF3D4016
:100E28003543A560E568920254BF3D403543E5600F
:100E380001334AE705B0BDE8F08F00BF0004004861
:100E480000040140001002400AB1816170478162CC
:100E58007047000030B5026985680168C3690C688D
:100E6800154342692A4342EA030524F4164222F054
:100E78000C022A430A604A68856922F44054C26811
:100E880022434A608A68046A22F430622C4322436F
:100E98008A605D4A91420AD102F558425B4C126B56
:100EA80002F00302B3F5004FA25C4BD07FE0584A32
:100EB80091420ED102F5E632126B02F44032B2F5DD
:100EC800803F54D035D9B2F5003F58D0B2F5403FF5
:100ED80036E0504A91420ED102F5E432126B02F428
:100EE8004022B2F5802F42D023D9B2F5002F46D048
:100EF800B2F5402F24E0484A91420ED102F5E23281
:100F0800126B02F44012B2F5801F30D011D9B2F53D
:100F1800001F34D0B2F5401F12E0404A91423AD146
:100F280002F5E032126B02F44002B2F5800F1ED0D7
:100F380001D8E2B12FE0B2F5000F20D0B2F5400F92
:100F480009D028E0082A29D8DFE802F01414082874
:100F5800142828281C00B3F5004F3BD140684208EC
:100F680002F1F47303F59043B3FBF0F310E0B3F52B
:100F7800004F38D14268530803F5610306E0B3F522
:100F8800004F35D14268530803F58033B3FBF2F3C1
:100F98009BB2002004E0B3F5004F33D101200023B9
:100FA80023F00F02C3F342031343CB6030BD082A7A
:100FB80028D8DFE802F018050F27182727271D0073
:100FC8004268530803F5E103B3FBF2F30E4A9BB200
:100FD800D36015E04068420802F5740303F5105326
:100FE800B3FBF0F30AE04268530803F5E10303E0BA
:100FF8004268530803F50043B3FBF2F39BB2CB609E
:10100800002030BD012030BD00380140AC1500087B
:101018000044004000480040004C004000500040A0
:10102800F8B5069D044616461F462068C26931EA8F
:1010380002030CBF01220022B2421BD16B1CF5D067
:1010480095B923681A6822F4D0721A609A6822F057
:1010580001029A60202384F8693084F86A300023FA
:1010680084F868300320F8BDFFF706FBC01B8542F3
:10107800DBD2E6E70020F8BD37B504460021C1669B
:10108800FFF7FAFA23681B681A07054604D4236891
:101098001B685B071AD50DE06FF07E4300930A4684
:1010A80003464FF400112046FFF7BAFF0028EED0A0
:1010B800032013E06FF07E43009300222B464FF489
:1010C80080012046FFF7ACFF0028F1D12023002043
:1010D80084F8693084F8680084F86A3003B030BD59
:1010E80010B5044628B390F8693003F0FF020BB935
:1010F80080F868202268242384F86930136823F074
:10110800010313602046FFF7A5FE012811D02368CC
:101118005A6822F490425A609A6822F02A029A6029
:101128001A6842F0010220461A60BDE81040FFF735
:10113800A3BF012010BDF7B51F4690F86930202BDA
:101148000D46044611464BD1002D47D0002A45D004
:1011580090F86830012B43D0012380F868300023D1
:10116800C366212380F86930FFF786FA0646A4F89B
:101178005010A4F85210B4F8522092B202B3B4F846
:1011880052300097013B9BB2A4F8523000223346FC
:1011980080212046FFF744FF08B1032021E0A3681F
:1011A8002268B3F5805F07D123692BB935F8023B74
:1011B800C3F308031385DEE72B7813850135DAE7D7
:1011C8000097334640212046FFF72AFF0028E4D144
:1011D800202384F8693084F8680002E0012000E0E8
:1011E800022003B0F0BD2DE9F341984690F86A302B
:1011F800202B0D46044611465AD1002D56D0002A00
:1012080054D090F86830012B52D0012380F8683010
:1012180003684FF0FF321A620023C366222380F866
:101228006A30FFF729FAA368A4F85810B3F5805F6D
:101238000746A4F85A1006D1236913B940F2FF13E0
:1012480006E0FF2304E02BB92369002BF9D07F23A4
:10125800A4F85C30B4F85C60B4F85A0080B2F8B115
:10126800B4F85A30CDF80080013B9BB2A4F85A304C
:1012780000223B4620212046FFF7D2FED0B9A368C2
:10128800B3F5805F236806D1226922B99B8C33406D
:1012980025F8023BE0E79B8C33402B700135DBE7F8
:1012A800202384F86A3084F8680004E0012002E012
:1012B800022000E0032002B0BDE8F0812B4A52F87A
:1012C800053B73B503F11001187802F8010C587842
:1012D800107098785070D87890700433994202F161
:1012E8000402F1D1224B23480421002201AC9D5C69
:1012F80015550132042AF9D18A0718D19DF804201E
:101308009DF80750825C9DF805408DF8072000EB9A
:1013180091029DF80660045D92F80021865D455DA6
:101328008DF8056062408DF806508DF8042013F89A
:101338000C4C9DF8042062401A7113F80B4C9DF870
:10134800052062405A7113F80A4C9DF80620624045
:101358009A7113F8094C9DF80720013162402C2935
:10136800DA7103F10403C0D102B070BDAC020020F1
:10137800BC020020000000200C4AF0B5D2F8B4707E
:1013880000010023111DC418FD180C440022A65C9E
:1013980095F800E001328EEA0606042A05F8016B8A
:1013A800F5D10433102BEED1F0BD00BFAC02002004
:1013B800094B0A48D3F8B43010B5191D002213F8A8
:1013C8002240045D03F822400132042AF7D1013398
:1013D8009942F3D110BD00BFAC02002000000020EC
:1013E8000D4BD3F8B43059795A785970597A5971E4
:1013F800597B5972997A5A739A789970997B9A722B
:101408009A799971D97B9A73DA78D970D97AD9731C
:10141800D979D972DA717047AC020020C3095A0031
:10142800134403EBC30383EA4000C0B270470000D3
:101438002DE9F74F0020FFF79FFF254F0124FFF705
:10144800B7FFFFF7CDFFD7F8B41001F1100991F8F5
:1014580000B091F801A08E78CD788BEA0A0086EA70
:10146800050380EA03080193FFF7D8FF8BEA000021
:1014780088EA000008708AEA0600FFF7CFFF019BA0
:101488008AEA000088EA000048701846FFF7C6FF9D
:10149800704088EA000088708BEA0500FFF7BEFFFD
:1014A800684088EA0000C87004314945CFD1204619
:1014B8000134E4B2FFF760FF0A2CC0D1FFF778FFD0
:1014C800FFF78EFF204603B0BDE8F04FFFF754BF8B
:1014D800AC0200204B1E01380F3113F8012F00F821
:1014E800012F8B42F9D17047014B1860FFF7E6BE18
:1014F800AC02002008B501460448C0F8B410B83062
:10150800FFF7E8FFBDE80840FFF792BFAC020020F4
:101518007047FFF7E9BFFFF7EDBF704770477047A7
:10152800002103E00B4B5B58435004310A480B4B36
:1015380042189A42F6D30A4A02E0002313600432A2
:10154800084B9A42F9D3AFF30080FEF76BFEFEF723
:10155800B3FEFEE7B8150008000000200C020020CA
:101568000C020020E4030020FEE70000F8B500BFED
:10157800F8BC08BC9E467047F8B500BFF8BC08BC6C
:041588009E467047C4
:10158C002B7E151628AED2A6ABF7158809CF4F3C8B
:10159C00303132333435363738394142434445469D
:0415AC00010408022C
:0415B000F501000839
:0415B400CD0100085D
:1015B800637C777BF26B6FC53001672BFED7AB7608
:1015C800CA82C97DFA5947F0ADD4A2AF9CA472C0B3
:1015D800B7FD9326363FF7CC34A5E5F171D8311520
:1015E80004C723C31896059A071280E2EB27B27541
:1015F80009832C1A1B6E5AA0523BD6B329E32F84B9
:1016080053D100ED20FCB15B6ACBBE394A4C58CFB0
:10161800D0EFAAFB434D338545F9027F503C9FA884
:1016280051A3408F929D38F5BCB6DA2110FFF3D252
:10163800CD0C13EC5F974417C4A77E3D645D197306
:1016480060814FDC222A908846EEB814DE5E0BDB00
:10165800E0323A0A4906245CC2D3AC629195E47937
:10166800E7C8376D8DD54EA96C56F4EA657AAE0891
:10167800BA78252E1CA6B4C6E8DD741F4BBD8B8A2C
:10168800703EB5664803F60E613557B986C11D9E92
:10169800E1F8981169D98E949B1E87E9CE5528DF09
:1016A8008CA1890DBFE6426841992D0FB054BB1635
:1016B8008D01020408102040801B3652096AD5307B
:1016C80036A538BF40A39E81F3D7FB7CE339829BC4
:1016D8002FFF87348E4344C4DEE9CB547B9432A673
:1016E800C2233DEE4C950B42FAC34E082EA1662844
:1016F800D924B2765BA2496D8BD12572F8F664863F
:10170800689816D4A45CCC5D65B6926C704850FDA0
:10171800EDB9DA5E154657A78D9D8490D8AB008C3D
:10172800BCD30AF7E45805B8B34506D02C1E8FCAB7
:101738003F0F02C1AFBD0301138A6B3A9111414FAC
:1017480067DCEA97F2CFCEF0B4E67396AC7422E782
:10175800AD3585E2F937E81C75DF6E47F11A711D62
:1017680029C5896FB7620EAA18BE1BFC563E4BC628
:10177800D279209ADBC0FE78CD5AF41FDDA83388D1
:1017880007C731B11210592780EC5F60517FA91942
:10179800B54A0D2DE57A9F93C99CEFA0E03B4DAE6D
:1017A8002AF5B0C8EBBB3C83539961172B047EBA6A
:0C17B80077D626E169146355210C7D00F2
:0400000508001529B1
:00000001FF
